:020000040800F2
:10000000301100209D01000869580008E1420008F5
:1000100065580008A5090008218D000800000000AF
:10002000000000000000000000000000B185000892
:100030000F15000800000000F55A0008B3850008FD
:10004000B7010008B7010008B7010008B7010008B0
:10005000B7010008B701000811150008B701000832
:10006000B70100081B15000825150008B701000896
:10007000790B0008B7010008B7010008B7010008B4
:10008000B7010008B7010008B7010008B909000866
:10009000A9090008B7010008B70100082F150008DA
:1000A000B7010008B7010008B7010008B701000850
:1000B00085860008B7010008B7010008B7010008ED
:1000C000B7010008B7010008B7010008B701000830
:1000D000B7010008B7010008B7010008FD8B000850
:1000E000B7010008B7010008B7010008B701000810
:1000F000B7010008B7010008B7010008B701000800
:10010000B7010008B7010008B7010008B7010008EF
:10011000B7010008B7010008B7010008B7010008DF
:10012000B7010008B7010008890B00082114000876
:10013000B7010008B7010008B7010008B7010008BF
:10014000C9090008B7010008B7010008B701000895
:10015000B7010008B7010008B7010008B70100089F
:10016000B7010008B7010008B7010008B70100088F
:10017000B7010008B7010008B7010008000000003F
:10018000B7010008B7010008DFF80CD000F04AF909
:1001900000480047159F000830110020064880479E
:1001A00006480047FEE7FEE7FEE7FEE7FEE7FEE75C
:1001B000FEE7FEE7FEE7FEE771860008890100081A
:1001C0002DE9F05F0546002092469B46884606468C
:1001D000814640241BE0284641464746224600F01F
:1001E00088F853465A46C01A914110D31146184612
:1001F000224600F06FF82D1A67EB01084F462246A1
:100200000120002100F066F817EB00094E41201E86
:10021000A4F10104DFDC484631462A464346BDE8E6
:10022000F09FD2B201E000F8012B491EFBD27047CB
:100230000022F6E710B513460A4604461946FFF7B2
:10024000F0FF204610BD00F0004230F000400AD020
:10025000C10D01F56071C0F3160042EA0151C208F8
:1002600040071143704700200146704730B5041E17
:1002700071F1000404DB4FF00044404264EB0101E3
:10028000141E73F1000405DB1C464FF0004352427C
:1002900063EB04038B4208BF824230BD01F0004390
:1002A00030B421F0004150EA010206D00A0DA2F557
:1002B0006072C1F31301002A02DC30BC00207047D9
:1002C000440F44EAC104C100E01830BC00EBC25046
:1002D00000F01FB8202A04DB203A00FA02F10020C7
:1002E00070479140C2F1200320FA03F31943904074
:1002F0007047202A04DB203A21FA02F000217047DF
:1003000021FA02F3D040C2F120029140084319467D
:1003100070470029A8BF7047401C490008BF20F063
:100320000100704710B4B0FA80FC00FA0CF050EAFB
:10033000010404BF10BC704749B1CCF1200421FA7C
:1003400004F411FA0CF118BF012121430843A3EB77
:100350000C01CB1D4FEA00614FEA102042BF002084
:1003600010BC704700EBC35010440029A4BF10BC60
:100370007047401C490008BF20F0010010BC7047C6
:100380002DE9F04D00231A461B1A8A4103DB002099
:100390000146BDE8F08DC1F30A52C1F3130141F4E7
:1003A00080154FF0000BD10702D100186D41521E8D
:1003B0000027044640F2FF11384601EB620A3E4630
:1003C0008046024600204FF48011FFF792FFC219C9
:1003D0007141BB1846EB0100B4EB030C75EB000C4C
:1003E00004D3E41A65EB000517460E46241908F1FC
:1003F00001006D4180463428E3DDF91946EB060023
:10040000091BA84103D24FF0FF32134601E000223E
:1004100013461BEB070046EB0A51BDE8F04D00F018
:1004200013B80000064C074D06E0E06840F00103F9
:1004300094E8070098471034AC42F6D3FFF7A8FEC3
:100440002CA200084CA2000810B5141E73F1000481
:1004500008DA401C41F1000192185B411A4301D1B6
:1004600020F0010010BD2DE9F04D92469B4611B1E0
:10047000B1FA81F202E0B0FA80F220329046FFF742
:1004800029FF04460F4640EA0A0041EA0B015346A1
:100490005A46084313D0114653EA010019D0C8F157
:1004A00040025046FFF725FF05460E465046594686
:1004B0004246FFF70FFF084305D0012004E0204625
:1004C0003946BDE8F08D0020054346EAE0762C432E
:1004D00037430A986305E40AA0EB08000022FD0AEE
:1004E00044EA47540A3002D500200146E9E70105F5
:1004F00010196941DDE9084500196941BDE8F04D71
:10050000A2E770B58C1810F8015B15F0070301D154
:1005100010F8013B2A1106D110F8012B03E010F866
:10052000016B01F8016B5B1EF9D12B0705D4002389
:10053000521E0DD401F8013BFAE710F8013BCB1A2B
:10054000921C03E013F8015B01F8015B521EF9D520
:10055000A142D8D3002070BDB7EE000A80ED000A9A
:100560009FED060A80ED010A9FED040A80ED020A64
:100570009FED020A80ED030A7047000000000000B2
:100580002DE9F0412DED028B0646B0EE408A0C4677
:1005900015461F4695ED023AF0EE432A95ED013AD5
:1005A000B0EE432A95ED003AF0EE431A94ED023A8C
:1005B000B0EE431A94ED013AF0EE430A94ED003A9E
:1005C000B0EE430A9FED064ADFED053A9FED043A8F
:1005D000304604F0F3FCBDEC028BBDE8F081000076
:1005E0000000000010B501221021024801F0DEFFDA
:1005F00010BD00000000024010B50022102102488A
:1006000001F0D4FF10BD0000000002407047000060
:1006100010B501221146024801F0C8FF10BD0000CC
:100620000004024010B500220121024801F0BEFF83
:1006300010BD00000004024010B543781B021BB23D
:100640000478234300EE103AB8EEC01A1C4BD3EDE9
:10065000001A21EE211A81ED001AC3781B021BB289
:100660008478234300EE103AB8EEC01A144BD3ED51
:10067000001A21EE211A81ED011A43791B021BB2E7
:100680000479234300EE103AB8EEC01A0C4BD3EDB8
:10069000001A21EE211A81ED021A037A1B04C47993
:1006A00043EA04238479234300EE903AB8EE601ABB
:1006B000DFED041A21EE211A82ED001A10BD0000B0
:1006C0006001002000401C42704710B504462046DF
:1006D00009F0CAF810BD10B50446204609F0ECF840
:1006E00010BD00004278120212B203781A4300EEE5
:1006F000102AF8EEC00A144A92ED001A60EE810A40
:10070000C1ED000AC278120212B283781A4300EED9
:10071000102AF8EEC00A0C4A92ED001A60EE810A27
:10072000C1ED010A4279120212B203791A4300EEB6
:10073000102AF8EEC00A044A92ED001A60EE810A0F
:10074000C1ED020A704700006401002010B50024CA
:10075000FFF75CFFFFF7B8FF08F0E0FD10B144F0D1
:10076000800402E008F040FD044308F0CFFF10B120
:1007700044F0400402E008F04FFF0443204610BD5F
:100780002DE9FC4105460E461746002000900190D9
:10079000FFF732FF922000F0D1F8062269461220BE
:1007A00000F0ACF8FFF71EFF9DF80100000200B258
:1007B0009DF8001040EA010400EE104AB8EEC00AAD
:1007C0004C48D0ED000A20EE200A86ED000A9DF884
:1007D0000300000200B29DF8021040EA010400EE9E
:1007E000104AB8EEC00A4348D0ED000A20EE200AB5
:1007F00086ED010A9DF80500000200B29DF8041084
:1008000040EA010400EE104AB8EEC00A3948D0EDC3
:10081000000A20EE200A86ED020AFFF703FF0822F5
:100820006946002000F06AF8FFF7F2FE9DF800002C
:100830000F2838D19DF80300000200B29DF8021085
:1008400040EA010400EE104AB8EEC00A2A48D0ED92
:10085000000A20EE200A85ED000A9DF8050000023E
:1008600000B29DF8041040EA010400EE104AB8EE10
:10087000C00A2148D0ED000A20EE200A85ED010AC9
:100880009DF80700000200B29DF8061040EA01043E
:1008900000EE104AB8EEC00A1748D0ED000A20EE6C
:1008A000200A85ED020AFFF7A7FEA22000F046F815
:1008B00002226946222000F021F8FFF793FE9DF8FE
:1008C0000000C0009DF8011040EA6114B4F5806F8B
:1008D00002DBA4F5006004B200EE104AF8EEC00A94
:1008E000B4EE001AB3EE070A00EE810A87ED000AA3
:1008F000BDE8FC81600100206401002070B506465F
:100900000C46154646F0800000F018F806E0552029
:1009100000F014F82070641C681EC5B2002DF6D1DA
:1009200070BD70B504460D4644F0800000F006F836
:10093000552000F003F8287070BD000001B582B0AA
:100940004FF47A70012301AA02A90090024802F034
:1009500081FE9DF804000EBD3402002010B5024651
:100960001378DB00547843EA6410B0F5806F02DB43
:10097000A0F5006318B200EE100AF8EEC00AB4EE5B
:10098000001AB3EE070A00EE810A81ED000A10BDDD
:1009900070B505460C462846FFF7D0FF2046FFF706
:1009A000CDFF70BD00BFFEE710B5024800F0DFFFCD
:1009B00010BD00009001002010B5024800F0D7FFE4
:1009C00010BD00009001002010B5024800F0CFFFDC
:1009D00010BD0000B801002010B50446B4F90800AD
:1009E00000EE100AB8EEC00A164880ED000AA07AA0
:1009F00000EE100AB8EE400A134880ED000AE07AD3
:100A000000EE100AB8EE400A104880ED000A90EDA2
:100A1000000ABDEEC00A10EE100A02B20A4890EDBC
:100A2000000ABDEEC00A10EE100A01B2054890EDB2
:100A3000000ABDEEC00A10EE100A00B200F050F835
:100A400010BD00005001002054010020580100207A
:100A500070B504460E461546B4F90600404200EE55
:100A6000100AB8EEC00A1A4880ED000AB4F9040072
:100A7000404200EE100AB8EEC00A164880ED000AA7
:100A8000B4F9000000EE100AB8EEC00A124880ED7A
:100A9000000A12480580B0F900300F4890ED000AB6
:100AA000BDEEC00A10EE100A02B20A4890ED000A2C
:100AB000BDEEC00A10EE100A01B2054890ED000A22
:100AC000BDEEC00A10EE100A00B200F02DF870BDA5
:100AD0003C0100204001002044010020480100208A
:100AE000F8B504460D46164602200C490860002061
:100AF0008860C86008200861200A094908704C70A5
:100B00008D70CE700020087148718871C8716B4675
:100B10000A460249034800F027FDF8BDA00C00205A
:100B200018010020B8010020F8B507460C4615460C
:100B30001E4601200D49086000208860C86008201A
:100B40000861380A0A4908704F70200A8870CC7012
:100B5000280A08714D71300A8871CE716B460A46B9
:100B60000249044800F000FDF8BD0000880C002098
:100B700010010020B801002010B5024801F02CFA45
:100B800010BD00002404002010B5FE48C06C0068B1
:100B9000FD49884276D9FC4854380068F949C96C47
:100BA0000968FA4A914201D1202169E0F549C96CEE
:100BB0000968F54A483A914201D1202160E0F149A3
:100BC000C96C0968F14A6032914201D1202157E095
:100BD000EC49C96C0968EC4A1832914201D12021D4
:100BE0004EE0E849C96C0968E84A1832914201D1DF
:100BF000C91445E0E349C96C0968E34A303A9142B7
:100C000001D1C9143CE0DF49C96C0968DF4A783278
:100C1000914201D1C91433E0DA49C96C0968DA4A52
:100C20003032914201D1C9142AE0D649C96C096811
:100C3000D64A3032914202D14FF4001120E0D1491E
:100C4000C96C0968D04A183A914202D14FF4001198
:100C500016E0CC49C96C0968CC4A9032914202D165
:100C60004FF400110CE0C749C96C0968C64A483204
:100C7000914203D14FF4001102E003E04FF0006114
:100C8000084070E1BF48C06C0068C049A831884284
:100C900076D9BD4858380068BA49C96C0968BB4A5A
:100CA000914201D1202169E0B649C96C0968B64A70
:100CB000483A914201D1202160E0B249C96C0968EB
:100CC000B24A6032914201D1202157E0AD49C96C4E
:100CD0000968AD4A1832914201D120214EE0A9495C
:100CE000C96C0968A94A1832914201D1C91445E07A
:100CF000A449C96C0968A44A303A914201D1C91487
:100D00003CE0A049C96C0968A04A7832914201D1FF
:100D1000C91433E09B49C96C09689B4A303291423F
:100D200001D1C9142AE09749C96C0968974A303241
:100D3000914202D14FF4001120E09249C96C096838
:100D4000914A183A914202D14FF4001116E08D49B0
:100D5000C96C09688D4A9032914202D14FF400115A
:100D60000CE08849C96C0968874A4832914203D12E
:100D70004FF4001102E003E04FF000610840F2E0A0
:100D80008048C06C006881494831884276D97F48E4
:100D9000103840687B49C96C09687C4A914201D18E
:100DA000202169E07749C96C0968774A483A91423D
:100DB00001D1202160E07349C96C0968734A60322F
:100DC000914201D1202157E06E49C96C09686E4AF1
:100DD0001832914201D120214EE06A49C96C09685C
:100DE0006A4A1832914201D1C91445E06549C96C7B
:100DF0000968654A303A914201D1C9143CE0614921
:100E0000C96C0968614A7832914201D1C91433E052
:100E10005C49C96C09685C4A3032914201D1C914FD
:100E20002AE05849C96C0968584A3032914202D1C7
:100E30004FF4001120E05349C96C0968524A183A2E
:100E4000914202D14FF4001116E04E49C96C096875
:100E50004E4A9032914202D14FF400110CE04949C0
:100E6000C96C0968484A4832914203D14FF40011D5
:100E700002E003E04FF00061084074E0434810389E
:100E800000684049C96C0968404A914201D120215B
:100E900068E03C49C96C09683B4A483A914201D133
:100EA00020215FE03749C96C0968384A60329142B5
:100EB00001D1202156E03349C96C0968324A183201
:100EC000914201D120214DE02E49C96C09682F4A79
:100ED0001832914201D1C91444E02A49C96C096809
:100EE000294A303A914201D1C9143BE02549C96CE5
:100EF0000968264A7832914201D1C91432E0214969
:100F0000C96C0968204A3032914201D1C91429E0E4
:100F10001C49C96C09681D4A3032914202D14FF414
:100F200000111FE01749C96C0968174A183A914225
:100F300002D14FF4001115E01249C96C0968134A37
:100F40009032914202D14FF400110BE00D49C96C6F
:100F500009680D4A4832914202D14FF4001101E074
:100F60004FF00061084000286FD00648C06C006850
:100F7000054988427BD90348C06C00680349884210
:100F800008D105E03402002058640240106002409D
:100F9000202068E0FE48C06C0068FE49884201D10C
:100FA000202060E0FA48C06C0068FB49884201D10B
:100FB000202058E0F648C06C0068F649603188424D
:100FC00001D120204FE0F248C06C0068F249483956
:100FD000884201D1C01446E0ED48C06C0068ED497C
:100FE0001831884201D1C0143DE0E948C06C006866
:100FF000E9491831884201D1C01434E0E448C06C9A
:101000000068E4497831884201D1C0142BE0E048FF
:10101000C06C0068E0493039884202D14FF40010BA
:1010200021E0DB48C06C0068DA493031884202D1E7
:101030004FF4001017E0D648C06C0068D649303134
:10104000884204D14FF400100DE0DFE10FE0D048FA
:10105000C06C0068CF499031884202D14FF4001033
:1010600001E04FF00060CB49091F08606AE1C84801
:10107000C06C0068C8494831884274D9C448C06C03
:101080000068C5496039884201D1202066E0C04827
:10109000C06C0068BF49884201D120205EE0BC4896
:1010A000C06C0068BC49884201D1202056E0B84895
:1010B000C06C0068B7496031884201D120204DE002
:1010C000B348C06C0068B4494839884201D1C014A3
:1010D00044E0AF48C06C0068AE491831884201D185
:1010E000C0143BE0AA48C06C0068AB491831884284
:1010F00001D1C01432E0A648C06C0068A54978311F
:10110000884201D1C01429E0A148C06C0068A249FE
:101110003039884202D14FF400101FE09C48C06C67
:1011200000689C493031884202D14FF4001015E02C
:101130009748C06C006898493031884202D14FF41A
:1011400000100BE09248C06C0068924990318842D0
:1011500002D14FF4001001E04FF000608D490839D2
:101160000860EFE0FFE78A48C06C00688A491839D8
:10117000884274D98648C06C0068874960398842C3
:1011800001D1202066E08248C06C00688149884215
:1011900001D120205EE07E48C06C00687E49884214
:1011A00001D1202056E07A48C06C0068794960314E
:1011B000884201D120204DE07548C06C0068764916
:1011C0004839884201D1C01444E07148C06C0068BD
:1011D00070491831884201D1C0143BE06C48C06CA2
:1011E00000686D491831884201D1C01432E0684866
:1011F000C06C006867497831884201D1C01429E089
:101200006348C06C006864493039884202D14FF4A9
:1012100000101FE05E48C06C00685E4930318842B3
:1012200002D14FF4001015E05948C06C00685A49CB
:101230003031884202D14FF400100BE05448C06CAA
:10124000006854499031884202D14FF4001001E007
:101250004FF0006050497039C86073E0FFE74C48B8
:10126000C06C00684C496039884201D1202066E09A
:101270004748C06C00684749884201D120205EE0A1
:101280004348C06C00684449884201D1202056E0A0
:101290003F48C06C00683F496031884201D120203E
:1012A0004DE03B48C06C00683B494839884201D159
:1012B000C01444E03648C06C006836491831884292
:1012C00001D1C0143BE03248C06C0068324918318B
:1012D000884201D1C01432E02D48C06C00682D490D
:1012E0007831884201D1C01429E02948C06C0068D7
:1012F00029493039884202D14FF400101FE02448B8
:10130000C06C006823493031884202D14FF400108C
:1013100015E01F48C06C00681F493031884202D177
:101320004FF400100BE01A48C06C00681949903166
:10133000884202D14FF4001001E04FF000601649DE
:10134000703988601548007800F0020078B11348C1
:10135000007820F00200114908700846007840F03B
:1013600004000870012211460D4801F01FF90D48D4
:10137000007800F00200E0B10A48007820F0020096
:10138000084908700846007840F0040008700BE037
:1013900034020020106402407060024055000020BA
:1013A000000402405600002001221021184801F0DC
:1013B000FDF81848007800F0020078B11548007870
:1013C00020F00200134908700846007840F004003D
:1013D0000870012210210E4801F0E8F808F018FC0E
:1013E0000D48007800F0040080B10B48007820F030
:1013F0000400094908700846007840F008000870A9
:101400000648006840F001000449086010BD000073
:10141000000002405700002055000020103C014011
:1014200010B5024800F0D8FD10BD0000EC0200200D
:101430000146087810381823B0FBF3F20848805CA6
:10144000C865032A05D908686FF30900001D88657F
:1014500003E008686FF309008865886D7047000035
:10146000B8A10008014600208A6A8B69CBB932B165
:10147000012A0DD0022A03D0032A10D10EE000BFAA
:10148000CB6A03F08073B3F1807F00D1012007E0C5
:10149000CB6AB3F1C07F00D1012001E000E000BFC2
:1014A00034E08B69B3F5005F1AD132B1012A07D05D
:1014B000022A03D0032A11D10AE000BF01200EE066
:1014C000CB6A03F08073B3F1807F00D1012006E086
:1014D000CB6AB3F1C07F00D1012000E000BF15E06E
:1014E00032B1012A05D0022A04D0032A0CD103E02C
:1014F00000BF00BF012008E0CB6A03F08073B3F1A6
:10150000807F00D1012000E000BF00BF704770471E
:1015100010B5012000F042FF10BD10B5082000F00A
:101520003DFF10BD10B5102000F038FF10BD10B504
:10153000202000F033FF10BD72B600BFFEE710B5EB
:10154000024692F82030012B01D0022B06D1106800
:101550004069084314686061002010BD506A40F47F
:10156000802050620120F8E7F0B504460D461E4683
:1015700094F8207020688368A86800B900E000BF74
:10158000012F01D0022F7DD103F0806030B903F02C
:10159000006018B903F0805000287ED0C3F30161C9
:1015A000012088403060A86860B9B5F800C0E868DC
:1015B00040EA4C5C206800F5C07000EB0110C0F8F8
:1015C00000C00FE0D5E901C040EACC00D5F80CC05E
:1015D00040EA0C00D4F800C00CF5C07C0CEB011CF8
:1015E000CCF80000D5F810C0206800F5C07000EB02
:1015F0000110C0F804C0287D01280ED1206800F534
:10160000C07000EB0110406840F4807C206800F559
:10161000C07000EB0110C0F804C0D079000692F849
:1016200006C040EA0C4092F805C040EA0C2092F84F
:1016300004C040EA0C00D4F800C00CF5C07C0CEBF0
:10164000011CCCF80C00D078000692F802C040EAE9
:101650000C4092F801C040EA0C2092F800C040EA29
:101660000C00D4F800C00CF5C07C0CEB011CCCF8CD
:101670000800206800F5C07000EB0110006840F021
:10168000010C01E00FE008E0206800F5C07000EBFD
:101690000110C0F800C00020F0BD606A40F40010E6
:1016A00060620120F8E7606A40F4802060620120F7
:1016B000F2E70000F0B504460A46216894F820508D
:1016C000012D01D0022D7ED1424901F5007108683B
:1016D00040F001000860086820F47C500860086849
:1016E000566A40EA06200860107D00F01F060120BF
:1016F00000FA06F3C8699843C861A1F50071D06982
:10170000C8B9D1F80C029843C1F80C02908880B295
:10171000968940EA064601F51070576940F837602F
:10172000108880B2168940EA064601F510705769A4
:1017300000EBC7004660D069012819D1D1F80C022E
:101740001843C1F80C02908880B2168840EA064619
:1017500001F51070576940F83760908980B216899A
:1017600040EA064601F51070576900EBC700466075
:10177000906928B9D1F804029843C1F8040204E042
:10178000D1F804021843C1F80402106928B9D1F84D
:1017900014029843C1F8140204E0D1F8140218436B
:1017A000C1F81402106A012804D1D1F81C021843B0
:1017B000C1F81C02D1F8000220F00100C1F80002BB
:1017C0000020F0BDFFE7606A40F4802060620120E5
:1017D000F7E7000000640040704770B5044694F8D5
:1017E0002050012D01D0022D7DD151B92068C06853
:1017F00000F0030080B9606A40F4001060620120CC
:1018000070BD2068006900F0030028B9606A40F4E8
:10181000001060620120F3E7206800F5D87000EB4B
:101820000110006800F004009060906840B92068E2
:1018300000F5D87000EB01100068400D106007E063
:10184000206800F5D87000EB01100068C0085060F7
:10185000206800F5D87000EB0110006800F002006D
:10186000D060206800F5D87000EB0110406800F0EF
:101870000F00082802D30820106108E0206800F556
:10188000D87000EB0110406800F00F001061206874
:1018900000F5D87000EB0110406800F47F40000AAA
:1018A0009061206800F5D87000EB01104068000CD2
:1018B0005061206800F5D87000EB01108068187046
:1018C000206800F5D87000EB0110806800F47F40BC
:1018D000000A5870206800F5D87000EB011080688D
:1018E00000F47F0000E03CE0000C9870206800F5F8
:1018F000D87000EB01108068000ED870206800F5E9
:10190000D87000EB0110C0681871206800F5D8701D
:1019100000EB0110C06800F47F40000A5871206895
:1019200000F5D87000EB0110C06800F47F00000CD7
:101930009871206800F5D87000EB0110C068000EA7
:10194000D87131B92068C06840F020002668F06086
:1019500005E02068006940F0200026683061002022
:101960004EE7606A40F480206062012048E72DE97C
:10197000F05F04460025206846692068D0F804908E
:10198000206887682068D0F80CA02068D0F810B0D4
:101990002068D0F8188006F00100002855D007F024
:1019A0000100C0B101202168886007F0020018B171
:1019B000204600F00AFB0EE007F0040010B145F4E9
:1019C000006508E007F0080010B145F4805502E01A
:1019D000204600F0F9FA07F48070C8B14FF4807027
:1019E0002168886007F4007018B1204600F0EFFA13
:1019F0000EE007F4806010B145F4005508E007F4EC
:101A0000006010B145F4804502E0204600F0DEFAA7
:101A100007F48030C8B14FF480302168886007F443
:101A2000003018B1204600F0D4FA0EE007F4802010
:101A300010B145F4004508E007F4002010B145F46A
:101A4000803502E0204600F0C3FA06F0080038B105
:101A50000AF0100020B145F4007510202168C8601C
:101A600006F0040040B10AF0080028B108202168FF
:101A7000C860204600F014FA06F0020038B1206871
:101A8000C06800F0030010B1204600F00BFA06F029
:101A9000400038B10BF0100020B145F480651020F3
:101AA0002168086106F0200040B10BF0080028B161
:101AB000082021680861204600F054FA06F0100062
:101AC00038B12068006900F0030010B1204600F032
:101AD0004AFA06F4003040B109F0100028B1102095
:101AE00021684860204600F03FFA06F4803040B19B
:101AF00009F0080028B1082021684860204600F05D
:101B000069FA06F4004088B309F0040078B306F4DB
:101B1000807020B108F0010008B145F0010506F41D
:101B2000007020B108F0020008B145F0020506F48B
:101B3000806020B108F0040008B145F0040506F407
:101B40000060A0B108F0700088B108F07000402873
:101B500017D006DC10280BD020280CD0302819D143
:101B60000CE0502810D0602814D110E01DE019E0DE
:101B700045F008050FE045F010050CE045F02005A4
:101B800009E045F0400506E045F0800503E045F436
:101B9000807500E000BF00BF2068806920F0700001
:101BA000216888610420216848602DB1606A28435B
:101BB00060622046FFF710FEBDE8F09F70B5044656
:101BC0000CB9012070BD94F8200010B9204600F037
:101BD000AFF82068006840F001002168086000F05C
:101BE000EBFC05460DE000F0E7FC401B0A2808D995
:101BF000606A40F400306062052084F82000012013
:101C0000E0E72068406800F001000028EBD0206881
:101C1000006820F002002168086000F0CDFC054655
:101C20000DE000F0C9FC401B0A2808D9606A40F4A6
:101C300000306062052084F820000120C2E720689F
:101C4000406800F002000028EBD1207E012806D178
:101C50002068006840F080002168086005E0206886
:101C6000006820F0800021680860607E012806D1AD
:101C70002068006840F040002168086005E02068A6
:101C8000006820F0400021680860A07E012806D18D
:101C90002068006840F020002168086005E02068A6
:101CA000006820F0200021680860E07E012806D14D
:101CB0002068006820F010002168086005E02068B6
:101CC000006840F0100021680860207F012806D1DC
:101CD0002068006840F008002168086005E020687E
:101CE000006820F0080021680860607F012806D1A4
:101CF0002068006840F004002168086005E0206862
:101D0000006820F0040021680860D4E9020108435B
:101D100021690843616908436168491E08432168D5
:101D2000C86100206062012084F82000002049E79B
:101D300010B586B00446142101A8FEF779FA52497D
:101D40002068884249D151480068401C4F490860CA
:101D50000846006801280FD100BF002000904C48C1
:101D6000006840F000704A4908600846006800F0CA
:101D70000070009000BF00BF00BF002000904448EA
:101D80001038006840F008004149103908600846E2
:101D9000006800F00800009000BF00BF0320019021
:101DA0000220029000200390032004900920059057
:101DB00001A9384800F000FB00220121132000F0A7
:101DC00059FF132000F042FF00220121142000F0EF
:101DD00051FF142000F03AFF54E02F492068884258
:101DE00050D100BF002000902948006840F080607A
:101DF000274908600846006800F08060009000BF36
:101E000000BF22480068401C20490860084600685E
:101E100001280FD100BF002000901D48006840F04D
:101E200000701B4908600846006800F000700090D0
:101E300000BF00BF00BF00200090154810380068A8
:101E400040F002001249103908600846006800F0AE
:101E50000200009000BF00BF6020019002200290AD
:101E600000200390032004900920059001A90B484D
:101E700000F0A2FA00220121402000F0FBFE4020E9
:101E800000F0E4FE06B010BD006400402000002019
:101E900040380240000C024000680040000402404C
:101EA0007047000010B58AB004462849206888426F
:101EB00037D101AB03AA00212548FFF78EFC039818
:101EC000A0F20120B8B101281FD0022809D00A28A9
:101ED00025D101A91F4807F08DFD1E4808F00AF919
:101EE0001EE001A91B48203007F084FD194820306E
:101EF00008F000F914E001A91648403007F07AFD17
:101F00001448403008F0F6F80AE001A911486030A2
:101F100007F070FD0F48603008F0ECF800E000BFFB
:101F200000BF0D49206888420DD101AB03AA0021F2
:101F30000A48FFF752FC0398102803D106200849ED
:101F4000086000BF00BF0AB010BD00000064004080
:101F5000900100200408002000680040B801002023
:101F6000EC00002070477047704770B5044694F845
:101F70002000012822D1022084F820002068006877
:101F800020F001002168086000F016FB05460DE016
:101F900000F012FB401B0A2808D9606A40F40030A8
:101FA0006062052084F82000012070BD2068406830
:101FB00000F001000028EBD16062F6E7606A40F4AF
:101FC000002060620120F0E770477047704770475B
:101FD0007047704770470000F8B504460020009035
:101FE0008C4800684FF41651B0FBF1F7A56D2E68D0
:101FF00094F85C1008208840304098B12068006850
:1020000000F0040070B12068006820F0040021682E
:10201000086094F85C1008208840A860606D40F06B
:102020000100606594F85C1001208840304068B180
:102030002068406900F0800040B194F85C100120F5
:102040008840A860606D40F00200606594F85C1004
:1020500004208840304068B12068006800F0020029
:1020600040B194F85C1004208840A860606D40F096
:102070000400606594F85C1010208840304078B30C
:102080002068006800F0080050B394F85C1010203D
:102090008840A8602068006800F4802080B1206833
:1020A000006800F4002028B9206CC8B12046216CDB
:1020B000884715E0A06C98B12046A16C88470FE0D6
:1020C0002068006800F4807028B92068006820F05B
:1020D000080021680860206C10B12046216C8847F8
:1020E00094F85C10202088403040002865D020689B
:1020F000006800F0100000285FD094F85C102020E9
:102100008840A86094F83500052828D12068006828
:1021100020F01600216808602068406920F08000E7
:1021200021684861206C08B9A06C28B1206800685B
:1021300020F008002168086094F85C103F20884077
:10214000A860012084F8350000BF002084F8340026
:1021500000BF206D10B12046216D8847F8BD206872
:10216000006800F4802080B12068006800F400203E
:1021700028B9606C10B12046616C88471DE0E06BA7
:10218000D8B12046E16B884717E02068006800F46A
:10219000807068B92068006820F01000216808602D
:1021A000012084F8350000BF002084F8340000BF0F
:1021B000E06B10B12046E16B8847606D38B3606D0D
:1021C00000F00100F0B1052084F8350020680068B7
:1021D00020F001002168086000BF0098401C0090BA
:1021E000B84200D905E02068006800F0010000282E
:1021F000F3D100BF012084F8350000BF002084F82F
:10220000340000BFE06C10B12046E16C884700BF8D
:10221000A4E70000300000202DE9F041044600252D
:1022200000F0CAF9074614B90120BDE8F081606AE0
:1022300000B100BF022084F8350000BF002084F800
:10224000340000BF2068006820F0010021680860A9
:102250000AE000F0B1F9C01B052805D9202060650F
:10226000032084F83500E0E72068006800F00100F2
:102270000028EED12068056821480540D4E9010115
:102280000843E16808432169084361690843A1697B
:102290000843E1690843216A08430543606A04284A
:1022A00003D1D4E90B010843054320680560206889
:1022B000456925F00705606A0543606A04280DD169
:1022C000A06A0543E06A48B12046FFF7CBF828B181
:1022D00040206065012084F83500A6E7206845614C
:1022E0002046FFF7A5F8064694F85C103F2088408A
:1022F000B06000206065012084F83500002094E77C
:102300003F8010F010B50446102C11D11D48007804
:1023100040F001001B4908701B48007840F00100A4
:10232000194908701948007858B307F071FC28E083
:10233000202C0BD11648007840F001001449087099
:1023400012480078E8B107F063FC1AE0082C18D1B5
:102350001048007840F001000E49087008460078E7
:1023600000F00100087060B10846007820F001001C
:1023700008700846007840F002000870064807F030
:1023800083FD10BD5600002057000020590000209A
:102390005500002058000020B804002010B5044665
:1023A00004480068204020B1024804602046FFF73E
:1023B000A9FF10BD143C0140F8B502460B460025AC
:1023C000002400200021D6E0012606FA01F51E684F
:1023D00006EA0504AC4274D11E7906F00306012E0C
:1023E00004D01E7906F00306022E13D190684F0028
:1023F0000326BE40B0434F00DE68BE4030439060CD
:10240000506801268E40B0431E79C6F300168E40F8
:10241000304350601E7906F00306032E09D0D068C1
:102420004F000326BE40B0434F009E68BE4030437D
:10243000D0601E7906F00306022E13D1CF0802F1F8
:10244000200656F827004E07F70E0F26BE40B04371
:102450004F07FF0E1E69BE403043CF0802F1200631
:1024600046F8270010684F000326BE40B0431E798F
:1024700006F003064F00BE40304310605E6806F46D
:102480004036002E76D000BF002600963C4E3668BF
:1024900046F480463A4F3E603E46366806F4804633
:1024A000009600BF00BF374E8F0856F827008E07F2
:1024B000370F0F26BE40B043334EB24202D1002642
:1024C00024E057E0314EB24201D101261EE0304EE9
:1024D000B24201D1022619E02E4EB24201D10326AA
:1024E00014E02D4EB24201D104260FE02B4EB24231
:1024F00001D105260AE02A4EB24201D1062605E0A6
:10250000284EB24201D1072600E008268F073F0F70
:10251000BE4030431B4E8F0846F82700224E3068DD
:10252000A0435E6806F4801606B120431E4E30605C
:10253000361D3068A0435E6806F4001606B12043DD
:10254000194E361D3060184E361F3068A0435E6845
:1025500006F4003606B12043134E361F3060361F96
:102560003068A0435E6806F4803606B120430E4E04
:10257000083E3060491C1029FFF426AFF8BD00006A
:102580004438024008380140000002400004024084
:1025900000080240000C02400010024000140240FB
:1025A00000180240001C0240083C01400AB1816151
:1025B00001E00B0483617047014800687047000028
:1025C0002400002070B504460CB9012070BD94F8B9
:1025D0003D0028B9002084F83C00204600F05EFA57
:1025E000242084F83D002068006820F00100216864
:1025F00008602068006840F4004021680860206896
:10260000006820F400402168086000F04DFC054699
:102610005C496068884206D85B48854201D2012047
:1026200007E0002005E05948854201D2012000E082
:102630000020012800D1C9E75548B5FBF0F6206815
:10264000406820F03F003043216848604D49606891
:10265000884201D8701C07E04FF4967070434FF425
:102660007A71B0FBF1F0401C2168096A21F03F014A
:1026700008432168086243496068884214D8681E8C
:1026800061684900B0FBF1F0401CC0F30B00042866
:1026900001D204203DE0681E61684900B0FBF1F002
:1026A000401CC0F30B0034E0A06838B9681E6168B4
:1026B00001EB4101B0FBF1F0401C0AE0681E6168CB
:1026C00001EBC10202EB0111B0FBF1F0401C40F440
:1026D0008040C0F30B0008B901201AE0A06848B997
:1026E000681E616801EB4101B0FBF1F0401CC0F3D2
:1026F0000B000CE0681E616801EBC10202EB0111E6
:10270000B0FBF1F0401CC0F30B0040F4804040F4FB
:1027100000402168C9694CF6FF7291430843216863
:10272000C861D4E9070108432168096821F0C001A4
:10273000084321680860D4E90310084321688968C8
:1027400048F2FF329143084321688860D4E90501CB
:1027500008432168C96821F0FF0108432168C86067
:102760002068006840F001002168086000202064B3
:10277000202084F83D000020206384F83E0000BF44
:1027800024E70000A086010080841E0000093D00AF
:1027900040420F002DE9FC5F04460F4690469946E3
:1027A000DDE90CAB0E9EFFF707FF054694F83D00F0
:1027B000202870D119230122B5492046009501F047
:1027C00061FE10B10220BDE8FC9F00BF94F83C0000
:1027D000012801D10220F6E7012084F83C0000BF67
:1027E0002068006800F0010028B92068006840F007
:1027F0000100216808602068006820F400602168FA
:102800000860222084F83D00402084F83E0000202B
:102810002064C4F824A0A4F82AB0608D20859D48C7
:10282000E0624B46424639462046CDE9006501F05C
:1028300079FD08B10120C6E7208D88B900BF0020CE
:10284000019020684069019020688069019000BF74
:1028500000BF2068006840F400702168086040E014
:10286000208D012818D12068006820F4806021683C
:10287000086000BF00200190206840690190206836
:102880008069019000BF00BF2068006840F40070BC
:102890002168086025E0F8E0208D022816D1206824
:1028A000006820F48060216808602068006840F4B7
:1028B00000602168086000BF002001902068406926
:1028C000019020688069019000BF0AE000BF0020ED
:1028D000019020684069019020688069019000BFE4
:1028E00000BFC3E0208D03287ED8208D012815D19C
:1028F0002A463146204601F0A1FE08B1012062E7D8
:1029000020680069616A0870606A401C6062208DFE
:10291000401E2085608D401E6085A7E0208D022826
:102920002AD1334600225C492046009501F0AAFDD9
:1029300008B1012047E72068006840F40070216872
:10294000086020680069616A0870606A401C606203
:10295000208D401E2085608D401E608520680069A6
:10296000616A0870606A401C6062208D401E20858C
:10297000608D401E608579E033460022464920463E
:10298000009501F07FFD08B101201CE72068006878
:1029900020F480602168086020680069616A08701E
:1029A000606A401C6062208D401E2085608D401E44
:1029B00060853346002238492046009501F062FDCB
:1029C00008B10120FFE62068006840F4007021682B
:1029D000086020680069616A0870606A401C606273
:1029E000208D401E208500E010E0608D401E608537
:1029F00020680069616A0870606A401C6062208D0E
:102A0000401E2085608D401E60852FE02A4631469D
:102A1000204601F013FE08B10120D4E620680069C9
:102A2000616A0870606A401C6062208D401E2085CB
:102A3000608D401E608520684069C0F38000A8B1A9
:102A4000208D032805D12068006820F4806021686B
:102A5000086020680069616A0870606A401C6062F2
:102A6000208D401E2085608D401E6085208D0028B1
:102A70007FF438AF202084F83D00002084F83E0029
:102A800000BF84F83C0000BF9DE602209BE60000EA
:102A9000020010000000FFFF0400010010B586B026
:102AA0000446142101A8FDF7C3FB2A492068884287
:102AB0004DD100BF002000902748006840F004007E
:102AC000254908600846006800F00400009000BF37
:102AD00000BF00BF002000900846006840F00100E1
:102AE00008600846006800F00100009000BF00BFC9
:102AF00048150190122002900020039003200490BA
:102B00000420059001A91548FFF756FC4FF480708A
:102B100001901220029000200390032004900420D2
:102B2000059001A90E48FFF747FC00BF0020009068
:102B300009481030006840F400000749103108606F
:102B40000846006800F40000009000BF00BF06B017
:102B500010BD0000005C0040303802400008024018
:102B6000000002400348006803490978084401490D
:102B700008607047240000202C00002010B50D488C
:102B8000006840F400700B4908600846006840F493
:102B9000806008600846006840F480700860032088
:102BA00000F0A6F80F2000F007F800F02BF8002046
:102BB00010BD0000003C024070B504460E4800788D
:102BC0004FF47A71B1FBF0F00C490968B1FBF0F5F4
:102BD000284600F05FFE08B1012070BD102C07D21E
:102BE00000222146501E00F045F80548046001E02F
:102BF0000120F2E70020F0E72C0000203000002048
:102C00002800002008B500BF002000900E48006892
:102C100040F480400C4908600846006800F4804099
:102C2000009000BF00BF00BF00200090081F006898
:102C300040F08050091F08600846006800F080508E
:102C4000009000BF00BF08BD44380240014608465E
:102C500000280DDB00BF00BF00F01F0301229A40D7
:102C600043099B0003F1E023C3F8002100BF00BF2C
:102C700000BF70472DE9F05F80460D4616460027DD
:102C800006F064F8074639462A46334601F0070045
:102C9000C0F1070ABAF1040F02D94FF0040A01E0AB
:102CA000C0F1070AD14600F1040ABAF1070F02D2B7
:102CB0004FF0000A01E0A0F1030AD4464FF0010AE8
:102CC0000AFA09FAAAF1010A0AEA020A0AFA0CFA4D
:102CD0004FF0010B0BFA0CFBABF1010B0BEA030BF2
:102CE0004AEA0B042146404606F038F8BDE8F09F5A
:102CF00000BF00F00702064B19684FF6FF031940AA
:102D0000044B0B4343EA0221014B196000BF70479B
:102D10000CED00E00000FA0570B504460D460CB954
:102D2000012070BD5848006800F00700A84209D291
:102D300055490D700846006800F00700A84201D010
:102D40000120EEE7207800F0020002281DD1207853
:102D500000F00400042805D14C48006840F4E0501D
:102D60004A490860207800F00800082805D1474843
:102D7000006840F46040454908604448006820F01D
:102D8000F000A168084341490860207800F0010084
:102D9000A8B36068012807D13C4808380068C0F330
:102DA0004040B8B90120BCE76068022802D06068E2
:102DB000032807D1354808380068C0F3406048B997
:102DC0000120AEE7314808380068C0F3400008B978
:102DD0000120A6E72D48006820F003006168084341
:102DE0002A490860FFF7E8FB064609E0FFF7E4FB25
:102DF000801B41F28831884202D9032091E707E025
:102E00002248006800F00C006168B0EB810FEDD142
:102E10001D48006800F00700A84209D91A490D7042
:102E20000846006800F00700A84201D0012078E7BA
:102E3000207800F00400042807D11448006820F42A
:102E4000E050E168084311490860207800F008006C
:102E5000082808D10D48006820F46040216940EA44
:102E6000C1000A49086000F03FF808490968C1F349
:102E70000311074A515CC8400649086006480068CB
:102E8000FFF79AFE00204CE7003C02400838024061
:102E9000C0A1000830000020280000200148006880
:102EA000704700003000002000B5FFF7F7FF04492D
:102EB0000968C1F38221034A515CC84000BD00008B
:102EC00008380240D0A1000800B5FFF7E7FF044929
:102ED0000968C1F34231034A515CC84000BD00009B
:102EE00008380240D0A100082DE9F0470024002551
:102EF0000026A1462548006800F00C0020B10428F7
:102F000005D008283AD105E0DFF8849039E0DFF8F1
:102F1000849036E01D48001F006800F03F041B4805
:102F2000001F006800F4800078B11A481749091F93
:102F30000968C1F38811A0FB0170014622460023F5
:102F40003846FDF73DF905460EE011480F49091FC7
:102F50000968C1F38811A0FB0170014622460023D5
:102F60003846FDF72DF905460848001F0068C0F3F4
:102F70000140401C4600B5FBF6F902E0DFF8109076
:102F800000BF00BF4846BDE8F08700000838024097
:102F90000024F400001BB700F8B504460CB901206A
:102FA000F8BD207800F00100002874D0F9480068CE
:102FB00000F00C0004280DD0F648006800F00C006A
:102FC000082813D1F348001F006800F48000B0F512
:102FD000800F0BD1EF4808380068C0F3404000284C
:102FE00059D06068002856D10120D9E700BF606839
:102FF000B0F5803F08D1E7480838006840F48030D9
:10300000E449083908601EE06068B0F5A02F0DD1D2
:10301000E0480838006840F48020DE49083908603C
:103020000846006840F4803008600CE0D948083851
:10303000006820F48030D7490839086008460068E5
:1030400020F48020086000BF606890B1FFF7B4FAF8
:10305000054606E0FFF7B0FA401B642801D90320BB
:103060009EE7CC4808380068C0F340400028F1D003
:1030700011E0FFF7A1FA054606E0FFF79DFA401BB5
:10308000642801D903208BE7C24808380068C0F3E0
:1030900040400028F1D1207800F0020002285FD1E2
:1030A000BC48006800F00C0058B1BA48006800F055
:1030B0000C0008281CD1B748001F006800F48000ED
:1030C000B0B9B44808380068C0F3400020B1E068E7
:1030D000012801D0012063E7AE480838006820F0DD
:1030E000F800216940EAC100AA490839086037E0C0
:1030F000E06800B30120A8490860FFF75DFA0546C3
:1031000006E0FFF759FA401B022801D9032047E7E0
:10311000A04808380068C0F340000028F1D09D485E
:103120000838006820F0F800216940EAC100994998
:103130000839086014E0002097490860FFF73CFA5E
:10314000054606E0FFF738FA401B022801D90320A4
:1031500026E7904808380068C0F340000028F1D105
:10316000207800F0080008282CD16069A8B101205F
:103170008A490860FFF720FA054606E0FFF71CFAC7
:10318000401B022801D903200AE782486C300068FE
:10319000C0F340000028F1D014E000207F4908600F
:1031A000FFF70AFA054606E0FFF706FA401B022879
:1031B00001D90320F4E677486C300068C0F3400082
:1031C0000028F1D1207800F00400042870D10027F5
:1031D00070483830006800F0805090B900BF00207F
:1031E00000906C483830006840F0805069493831B0
:1031F00008600846006800F08050009000BF00BFE3
:1032000001276748006800F48070B0B9644800681E
:1032100040F4807062490860FFF7CEF9054606E089
:10322000FFF7CAF9401B022801D90320B8E65C4821
:10323000006800F480700028F2D000BFA068012868
:1032400008D154486830006840F0010051496831A5
:1032500008601DE0A06805280DD14E486830006860
:1032600040F004004B49683108600846006840F0AF
:10327000010008600CE047486830006820F0010059
:103280004449683108600846006820F0040008607E
:1032900000BFA068A8B1FFF78FF9054609E0FFF766
:1032A0008BF9401B41F28831884202D9032077E62E
:1032B00026E0384868300068C0F340000028EED0AF
:1032C00013E0FFF779F9054608E0FFF775F9401BB1
:1032D00041F28831884201D9032061E62D486830E7
:1032E0000068C0F340000028EFD1012F07D1294822
:1032F0003830006820F0805026493831086000BF1F
:10330000A069002845D02348006800F00C00082878
:103310005DD0A069022845D100201F490866FFF74B
:103320004BF9054606E0FFF747F9401B022801D993
:10333000032035E6174808380068C0F340600028CD
:10334000F1D1D4E907010843616A40EA8111012201
:10335000A06AC2EB500041EA00412C20005D41EA26
:1033600000600C49091F086001200B490866FFF73F
:1033700023F9054606E0FFF71FF9401B022801D993
:1033800003200DE6034808380068C0F340600028B9
:10339000F1D049E00838024000004742800E474221
:1033A00000700040002021490866FFF705F9054636
:1033B00006E0FFF701F9401B022801D90320EFE5E1
:1033C0001B480068C0F340600028F2D12CE0A069DF
:1033D000012800D1E4E51648001D0668A06901280F
:1033E00020D006F48001E06981421BD106F03F0144
:1033F000206A814216D147F6C0703040616AB0EB56
:10340000811F0FD106F440310122A06AC2EB5000A7
:10341000B1EB004F06D106F070612C20005DB1EBDE
:10342000006F01D00120BBE50020B9E50000474254
:103430000038024010B504460CB9012010BD606A86
:1034400038B96068B0F5827F00D105E00021E16104
:1034500002E00021216161610021A16294F8510024
:1034600028B9002084F85000204600F047F80220D8
:1034700084F851002068006820F04000216808604E
:10348000A08800F48270218901F404410843A189D5
:1034900001F400610843217C01F002010843217D11
:1034A00001F001010843218B01F400710843217FE1
:1034B00001F0380108432021095D01F08001084333
:1034C000218D01F400510843216808600421A0699E
:1034D00001EA104094F8241001F01001084321681B
:1034E00048602068C06920F400602168C86100203D
:1034F0006065012084F8510000209FE710B586B078
:103500000446142101A8FCF793FE4B492068884229
:103510007ED100BF002000904848006840F48050F1
:10352000464908600846006800F48050009000BFDB
:1035300000BF00BF0020009040481438006840F0F1
:1035400002003E49143908600846006800F0020095
:10355000009000BF00BF00BF002000900846006838
:1035600040F0010008600846006800F0010000908B
:1035700000BF00BF1820019002200290002003909D
:10358000032004900520059001A92D48FEF714FFA3
:1035900080200190022002900020039003200490DC
:1035A0000520059001A92748FEF706FF2648274970
:1035B00008604FF0C0604860002124488160C1600D
:1035C0004FF480610161002141618161C1614FF46B
:1035D0004031016200214162FEF71EFE08B1FDF795
:1035E000ABFF00BF1948E064846300BF1648183081
:1035F000174908604FF0C06048604021144881605E
:103600000021C1604FF4806101610021416100E04F
:1036100010E08161C1614FF400310162002141621B
:10362000FEF7FAFD08B1FDF787FF00BF0848A06468
:10363000846300BF06B010BD003001404438024032
:103640000004024000000240406402408C0200205E
:10365000EC0200202DE9FF5F0446884691461D4696
:103660000E9E012002900020019000BF94F85000AF
:10367000012803D1022004B0BDE8F09F012084F8A6
:10368000500000BFFEF798FF074694F851B06068FD
:103690000390AA46BBF1010F0BD00398B0F5827FCF
:1036A00004D1A06810B9BBF1040F02D00220019030
:1036B000E9E0B8F1000F03D0B9F1000F00D015B95F
:1036C00001200190DFE094F85100042802D0052089
:1036D00084F8510000206065C4F83890E587A5871C
:1036E000C4F83080E586A5862064606420680068A0
:1036F00000F04000402805D02068006840F04000FD
:1037000021680860E068B0F5006F4DD1606810B1C5
:10371000BAF1010F09D1206B00882168C860206BC5
:10372000801C2063E08E401EE08636E020688068C2
:1037300000F00200022810D1E08E70B1029801283A
:103740000BD1206B00882168C860206B801C20632F
:10375000E08E401EE086002002902068806800F025
:10376000010068B1E08F58B12068C068A16B088083
:10377000A06B801CA063E08F401EE08701200290B8
:10378000FEF71AFFC01BB04207D3701C28B10320FC
:103790000190012084F8510075E0E08E0028C5D129
:1037A000E08F0028C2D14DE0606810B1BAF1010F7E
:1037B00009D1206B007821680873206B401C2063BE
:1037C000E08E401EE08637E02068806800F002004E
:1037D000022810D1E08E70B1029801280BD1206B25
:1037E000007821680873206B401C2063E08E401E27
:1037F000E086002002902068806800F0010068B137
:10380000E08F58B12068C068A16B0870A06B401CA5
:10381000A063E08F401EE08701200290FEF7CCFEFF
:10382000C01BB04201D3701C00B92EB90320019017
:10383000012084F8510026E0E08E0028C4D1E08FFA
:103840000028C1D13A463146204604F001FE20B19D
:10385000012001902020606515E0A06850B900BFEC
:10386000002000902068C068009020688068009068
:1038700000BF00BF606D10B10120019002E0012087
:1038800084F8510000BF00BF002084F8500000BF42
:103890000198F0E670B504462546681EB0F1807FB9
:1038A00001D301200FE0681E4FF0E02148610F2195
:1038B0004FF0FF3005F052FA00204FF0E021886110
:1038C00007200861002070BD7047704730B5024680
:1038D0000B4600BF92F83C00012801D1022030BD08
:1038E000012082F83C0000BF022082F83D001068F1
:1038F00044681068816824F07004186804431068F4
:103900004460184D1068A8421BD01068B0F1804F79
:1039100017D0154D1068A84213D0144D1068A84256
:103920000FD0134D1068A8420BD0124D1068A8425A
:1039300007D0114D1068A84203D0104D1068A8425E
:1039400005D121F080015868014310688160012091
:1039500082F83D0000BF002082F83C0000BF00BF9D
:10396000BDE70000000001400004004000080040E6
:10397000000C0040000401400040014000180040DD
:1039800010B504460CB9012010BD94F83D0028B9CB
:10399000002084F83C00204600F026F8022084F83D
:1039A0003D00211D206804F075FE012084F84600CA
:1039B00000BF84F83E0001213F2001554020015501
:1039C0004120015500BF00BF012084F84200432080
:1039D0000155442001554520015500BF012084F8C0
:1039E0003D000020D0E7000038B504462068B0F163
:1039F000804F18D100BF002000901648006840F0AA
:103A00000100144908600846006800F001000090B9
:103A100000BF00BF002201211C20FFF72BF91C2052
:103A2000FFF714F915E00C492068884211D100BF56
:103A3000002000900748001D006840F40030054950
:103A4000091D08600846006800F40030009000BFBF
:103A500000BF38BD4038024000440140014691F8A3
:103A60003D00012801D001207047022081F83D006F
:103A70001A4B086898421BD00868B0F1804F17D0E5
:103A8000174B0868984213D0164B086898420FD01D
:103A9000154B086898420BD0144B0868984207D021
:103AA000134B0868984203D0124B086898420CD117
:103AB0000868806800F00702062A0CD008680068D1
:103AC00040F001000B68186005E00868006840F0ED
:103AD00001000B6818600020C6E7000000000140EC
:103AE0000004004000080040000C004000040140B9
:103AF0000040014000180040014691F83D000128B7
:103B000001D001207047022081F83D000868C0689C
:103B100040F001000B68D8601A4B086898421BD02F
:103B20000868B0F1804F17D0174B0868984213D03F
:103B3000164B086898420FD0154B086898420BD076
:103B4000144B0868984207D0134B0868984203D07A
:103B5000124B086898420CD10868806800F0070290
:103B6000062A0CD00868006840F001000B68186055
:103B700005E00868006840F001000B68186000204C
:103B8000C0E70000000001400004004000080040C1
:103B9000000C0040000401400040014000180040BB
:103BA0002DE9F04104460D46002700BF94F83C0083
:103BB000012802D10220BDE8F081012084F83C00F8
:103BC00000BF022084F83D002068866826F0770652
:103BD00026F47F46206886602868502833D00CDCA5
:103BE000202850D004DC00284BD0102851D149E0C7
:103BF000302849D040284CD139E060282DD0702899
:103C000007D0B0F5805F03D0B0F5005F41D10DE083
:103C100041E0D5E902136A68206804F0C0FD20681D
:103C2000866846F077062068866034E0D5E902139E
:103C30006A68206804F0B3FD2068806840F4804022
:103C40002168886027E0EA686968206804F098FEC7
:103C50005021206804F0AEFD1DE0EA686968206824
:103C600004F0A1FE6021206804F0A4FD13E0EA68DE
:103C70006968206804F084FE4021206804F09AFD01
:103C800009E000BF00BF00BF2968206804F092FD72
:103C900001E0012700BF00BF012084F83D0000BF04
:103CA000002084F83C0000BF384684E7704770B5B8
:103CB00004462068C5682068066906F002000228EC
:103CC00019D105F00200022815D1401F21680861B2
:103CD000012020772068806900F0030018B1204699
:103CE000FFF7E4FF05E0204600F0CAF8204600F0A8
:103CF0007EF90020207706F00400042819D105F091
:103D00000400042815D1C0432168086102202077EF
:103D10002068806900F4407018B12046FFF7C6FFA4
:103D200005E0204600F0ACF8204600F060F90020E5
:103D3000207706F00800082819D105F008000828A7
:103D400015D1C04321680861042020772068C0692C
:103D500000F0030018B12046FFF7A8FF05E0204659
:103D600000F08EF8204600F042F90020207706F09F
:103D70001000102819D105F01000102815D1C043EB
:103D800021680861082020772068C06900F440702D
:103D900018B12046FFF78AFF05E0204600F070F8D2
:103DA000204600F024F90020207706F0010048B1F9
:103DB00005F0010030B16FF0010021680861204674
:103DC00000F09CF906F08000802809D105F0800001
:103DD000802805D1C043216808612046FFF774FDA3
:103DE00006F04000402809D105F04000402805D1E8
:103DF000C04321680861204600F0C6F906F02000A3
:103E0000202809D105F02000202805D1C0432168D1
:103E100008612046FFF759FD70BD000010B586B05F
:103E20000446142101A8FCF703FA124920688842CD
:103E30001DD100BF002000900F48006840F0200016
:103E40000D4908600846006800F02000009000BF9F
:103E500000BF402001900220029001200390022028
:103E600004900320059001A90448FEF7A5FA06B0C6
:103E700010BD0000004401403038024000140240F0
:103E800070472DE9F04104460D461646002700BF55
:103E900094F83C00012802D10220BDE8F081012005
:103EA00084F83C0000BF36B1042E1BD0082E31D060
:103EB0000C2E5ED145E02946206804F085FC206880
:103EC000806940F00800216888612068806920F0DE
:103ED0000400216888612068806929690843216895
:103EE000886148E02946206804F0A6FC20688069C3
:103EF00040F40060216888612068806920F4806057
:103F00002168886120688069296940EA0120216868
:103F1000886130E02946206804F0CCFC2068C06944
:103F200040F008002168C8612068C06920F00400E2
:103F30002168C8612068C069296908432168C8618F
:103F400019E02946206804F0F1FC2068C06940F4BB
:103F500000602168C8612068C06920F48060216821
:103F6000C8612068C069296940EA01202168C861E8
:103F700001E0012700BF00BF00BF002084F83C0023
:103F800000BF384689E710B504460CB9012010BDC2
:103F900094F83D0028B9002084F83C00204600F049
:103FA00025F8022084F83D00211D206804F072FBF2
:103FB000012084F8460000BF84F83E0001213F2024
:103FC0000155402001554120015500BF00BF01208F
:103FD00084F84200432001554420015545200155F5
:103FE00000BF012084F83D000020D0E770477047F3
:103FF00070B504460D4615B994F83E000BE0042D4B
:1040000002D13F20005D06E0082D02D14020005D76
:1040100001E04120005D012801D0012070BD1DB9E3
:10402000022084F83E000EE0042D03D102213F203F
:10403000015508E0082D03D102214020015502E07E
:1040400002214120015501222946206804F096FBF7
:1040500023492068884203D022492068884201D140
:10406000012000E0002028B12068406C40F40040AE
:10407000216848641A49206888421BD02068B0F142
:10408000804F17D018492068884213D017492068FC
:1040900088420FD01649206888420BD01149206809
:1040A000884207D013492068884203D0124920680B
:1040B00088420CD12068806800F00706062E0CD0DC
:1040C0002068006840F001002168086005E0206871
:1040D000006840F001002168086000209EE70000B1
:1040E00000000140000401400004004000080040BE
:1040F000000C0040004001400018004010B504468C
:104100001B48844233D11B480068401C1949086091
:1041100019480068032802DD012018490860174883
:10412000006801280DD100F077FB154890ED000ADA
:10413000BDEEC00A10EE100A02B211491148FCF798
:1041400087FC0C480068B0F57A7F0ADB002009493B
:1041500008600A48006820B907480068401C064902
:104160000860084805F00AFF0648FCF735FC10BD5A
:104170004C0300200C000020040000200800002058
:10418000BC050020280C0020704710B504460CB96F
:10419000012010BDA06900B100E000BF94F841000B
:1041A00028B9002084F84000204600F029F8242097
:1041B00084F841002068C06820F400502168C8607D
:1041C000204604F005FC2068006920F49040216836
:1041D00008612068406920F02A0021684861206851
:1041E000C06840F400502168C8600020606420204E
:1041F00084F8410084F842000020606300BFC8E7F3
:1042000010B586B00446142101A8FCF711F82F4917
:104210002068884258D100BF002000902C480068D8
:1042200040F480202A4908600846006800F4802095
:10423000009000BF00BF00BF00200090244810384D
:10424000006840F004002249103908600846006800
:1042500000F00400009000BF00BF4FF440600190E8
:104260000220029000200390032004900720059074
:1042700001A91848FEF7A0F81748184908604FF040
:1042800000604860002115488160C1604FF4806182
:104290000161002141618161C1614FF4803101629E
:1042A00000214162FDF7B8FF08B1FDF745F900BFF5
:1042B0000A48E063846300BF002201212720FEF743
:1042C000D9FC2720FEF7C2FC06B010BD0048004014
:1042D00040380240000802402860024024040020C8
:1042E00000BFFEE7014608684069C0F38020B0B116
:1042F0006FF480600A68506100200863202081F814
:104300003D00002081F83E00086C40F00400086485
:1043100000BF002081F83C0000BF01207047002052
:10432000FCE700002DE9F84304460F461546994680
:10433000DDE908862068006840F480602168086034
:104340002068006840F480702168086043460022BD
:104350004FF001112046009600F094F860B12068FB
:10436000006800F48070B0F5807F02D14FF40070D7
:1043700020640320BDE8F88307F0FE00216808618F
:10438000334642463E49204600F0DBF808B10120A2
:10439000F0E700BF0020009020684069009020688E
:1043A0008069009000BF00BF32464146204600F0C1
:1043B0008AF950B1206C042805D12068006840F4C7
:1043C0000070216808600120D4E7B9F1010F03D122
:1043D000E8B22168086117E0C5F307202168086189
:1043E00032464146204600F06EF950B1206C042858
:1043F00005D12068006840F4007021680860012041
:10440000B8E7E8B22168086132464146204600F02C
:104410005AF950B1206C042805D12068006840F496
:104420000070216808600120A4E72068006840F45B
:10443000807021680860434600224FF00111204639
:10444000009600F01FF858B12068006800F48070F2
:10445000B0F5807F02D14FF400702064032089E71B
:10446000F8B240F001002168086133464246044931
:10447000204600F066F808B101207BE7002079E7CC
:10448000020001002DE9F04104460D4617461E4684
:10449000DDF8188038E0701CA8B3FEF78DF8A0EBAB
:1044A0000800B04200D876BBC5F3074001280AD106
:1044B00020684069A9B20840A9B2884201D1012010
:1044C0000BE0002009E020688069A9B20840A9B289
:1044D000884201D1012000E00020B84214D1002020
:1044E0002063202084F83D00002084F83E00206CEA
:1044F00040F02000206400BF002084F83C0000BF92
:104500000120BDE8F081FFE7C5F3074001280AD18B
:1045100020684069A9B20840A9B2884201D10120AF
:104520000BE0002009E020688069A9B20840A9B228
:10453000884201D1012000E00020B842ABD0002029
:10454000DFE72DE9F04104460D4616461F4658E0C8
:1045500020684069C0F38020E8B12068006840F41A
:104560000070216808606FF4806021684861002055
:104570002063202084F83D00002084F83E00206C59
:1045800040F00400206400BF002084F83C0000BF1D
:104590000120BDE8F081701C90B3FEF70DF8C01B40
:1045A000B04200D866BBC5F3074001280AD1206895
:1045B0004069A9B20840A9B2884201D101200BE0AC
:1045C000002009E020688069A9B20840A9B28842A9
:1045D00001D1012000E0002090B9002020632020BC
:1045E00084F83D00002084F83E00206C40F020005C
:1045F000206400BF002084F83C0000BF0120C8E711
:10460000FFE7C5F3074001280AD120684069A9B235
:104610000840A9B2884201D101200BE0002009E046
:1046200020688069A9B20840A9B2884201D101205E
:1046300000E0002000288BD00020AAE770B50446D7
:104640000D46164637E020684069C0F30010A0B15F
:104650006FF010002168486100202063202084F85A
:104660003D00002084F83E00206C206400BF002044
:1046700084F83C0000BF012070BDFDF79DFF801B4A
:10468000A84200D8BDB920684069C0F3801090B935
:1046900000202063202084F83D00002084F83E00A4
:1046A000206C40F02000206400BF002084F83C0013
:1046B00000BF0120E0E720684069C0F380100028B7
:1046C000C1D00020D8E770B504460D46164625E057
:1046D0002046FFF707FE08B1012070BD681CE8B155
:1046E000FDF76AFF801BA84200D8BDB92068406969
:1046F000C0F3C01090B900202063202084F83D0052
:10470000002084F83E00206C40F02000206400BFB0
:10471000002084F83C0000BF0120DEE720684069EB
:10472000C0F3C0100028D3D00020D6E708B502E0BF
:10473000642005F099F8FCF709F80028F8D1274A19
:10474000A2F10C01101DFCF71BF82549254801F0CA
:1047500035F9254A21490C392448FBF7FDFE102183
:104760002348C161FEF766FE08B1FCF7E5FE0822AA
:104770002049214803F0ACFD0120204908701A4867
:10478000001F164B103B1E4A1E4900901E4805F0A4
:10479000A9F91C4890ED000A1C4880ED000A1C484D
:1047A00080ED000A1B4880ED000A164890ED010AD2
:1047B000164880ED010A164880ED010A154880ED83
:1047C000010A104890ED020A104880ED020A1048D4
:1047D00080ED020A0F4880ED020A08BDA004002007
:1047E000D8A100080C050020B8040020A005002076
:1047F00034020020340000203C000020590000203A
:1048000094050020880500207C050020700500200C
:10481000640500205805002000B52DED048B81B003
:10482000B5480068401CB44908600846006819286B
:1048300009DDB248D0ED040AB0EE600A05F0A2FA34
:104840000020AD490860AE48007800F0080050B183
:10485000AB48007820F00800A9490870A749143136
:10486000A848FBF73FFFA848007800F0040060B1BB
:10487000A548007820F00400A34908709F4A203220
:10488000A2F11C01A148FBF7D7FEA148007800F077
:10489000040088B19E48007820F004009C4908700C
:1048A000964910319B48FCF759F89448D0ED040A1A
:1048B000B0EE600A05F066FA9748904B974A98491F
:1048C0000090984805F00EF9974890ED000A974837
:1048D00080ED000A964890ED000A934880ED000AAA
:1048E00090ED000A9348D0ED000A20EE200A8F4890
:1048F000D0ED000A8F4890ED011A00EE810A884839
:10490000D0ED000A8B4890ED021A00EE810A88482B
:1049100080ED000A844890ED010A844880ED010A88
:10492000834890ED010A804880ED010A90ED010A6C
:104930008048D0ED000A20EE200A7C48D0ED010A24
:104940007C4890ED011A00EE810A7548D0ED010A0D
:10495000784890ED021A00EE810A754880ED010A50
:10496000714890ED020A714880ED020A704890ED9E
:10497000020A6D4880ED020A90ED020A6D48D0ED02
:10498000000A20EE200A6948D0ED020A694890ED3D
:10499000011A00EE810A6248D0ED020A654890EDE6
:1049A000021A00EE810A624880ED020A534890ED37
:1049B000050A10EE101A0846FBF745FC41EC190BEE
:1049C000B0EE490AF0EE690A04F09AFBB0EE408AB4
:1049D000F0EE608A9FED580B53EC102B51EC180B46
:1049E000FBF744FC02D29FED560A02E0434890EDEB
:1049F000050A424880ED050A90ED060A10EE101AED
:104A00000846FBF720FC41EC190BB0EE490AF0EE2A
:104A1000690A04F075FBB0EE408AF0EE608A9FED03
:104A2000460B53EC102B51EC180BFBF71FFC02D27A
:104A30009FED430A02E0314890ED060A2F4880EDD1
:104A4000060A90ED070A10EE101A0846FBF7FBFB6A
:104A500041EC190BB0EE490AF0EE690A04F050FB84
:104A6000B0EE408AF0EE608A9FED330B53EC102BD2
:104A700051EC180BFBF7FAFB02D29FED310A02E072
:104A80001E4890ED070A1D4880ED070A224B1B1DAA
:104A9000021D00F114019FED2B0A2B48FBF770FD5E
:104AA0002A4B1A1F111F284804F02EFF27480838E8
:104AB00090ED000ADFED260A80EE201A9FED250A10
:104AC00021EE000A244880ED000A2048083890EDC5
:104AD000020AFFEE000A20EE200ADFED1D0A80EE3A
:104AE000201A9FED1C0A21EE000A1C4880ED000AE6
:104AF00001B0BDEC048B00BDCC0000209004002070
:104B000055000020350000205600002086040020BB
:104B1000570000204F000020B4040020940500201E
:104B2000880500207C050020640500205805002031
:104B300070050020ECA1000800000040E17A743FFD
:104B4000000000006F12833AA0050020B805002085
:104B5000D00FC9400000B443BC050020E00600208F
:104B600010B50E480E4908600320486000210C482B
:104B70008160C1604FF4802101614FF4E001416127
:104B80000021017641768176C17601774177FDF784
:104B900015F808B1FCF7D0FC10BD0000006400401F
:104BA0009001002010B50E480E49086003204860AF
:104BB00000210C488160C1604FF4802101614FF4F5
:104BC000E00141610021017641768176C17601776D
:104BD0004177FCF7F3FF08B1FCF7AEFC10BD000015
:104BE00000680040B801002008B500BF0020009018
:104BF0001A48006840F480001849086008460068B8
:104C000000F48000009000BF00BF00BF00200090B3
:104C10000846006840F4001008600846006800F488
:104C20000010009000BF00BF002211460C20FEF7CC
:104C300021F80C20FEF70AF8002211463A20FEF770
:104C400019F83A20FEF702F8002211463B20FEF741
:104C500011F83B20FDF7FAFF08BD00003038024094
:104C600000B587B0142102A8FBF7E2FA00BF0020CC
:104C700001906748006840F00200654908600846F6
:104C8000006800F00200019000BF00BF00BF0020DC
:104C900001900846006840F001000860084600687E
:104CA00000F00100019000BF00BF00BF0020019094
:104CB0000846006840F0080008600846006800F0F8
:104CC0000800019000BF00BF00BF0020019008460F
:104CD000006840F0040008600846006800F0040026
:104CE000019000BF00BF00BF00200190084600688F
:104CF00040F0800008600846006800F080000190E5
:104D000000BF00BF00BF002001900846006840F0CF
:104D1000400008600846006800F04000019000BFB5
:104D200000BF00BF002001900846006840F020004E
:104D300008600846006800F02000019000BF00BF36
:104D4000012240213348FDF731FC01221021324875
:104D5000FDF72CFC012211463048FDF727FC4020CE
:104D600002900120039004900220059002A9294896
:104D7000FDF722FB092002904FF4881003900120D8
:104D8000049002A92348FDF717FB10200290012090
:104D9000039004900220059002A91F48FDF70CFB28
:104DA000302002904FF4881003900120049002A953
:104DB0001B48FDF701FB01200290039004900220A4
:104DC000059002A91548FDF7F7FA002202210620F6
:104DD000FDF750FF0620FDF739FF002201210920D1
:104DE000FDF748FF0920FDF731FF002201210A20CD
:104DF000FDF740FF0A20FDF729FF002201211720BF
:104E0000FDF738FF1720FDF721FF07B000BD0000B8
:104E10003038024000180240000002400004024006
:104E20000008024010B50B480B4908600B48486069
:104E3000002109488160C1604FF480410161002177
:104E400041618161C1610162FDF7BCFB08B1FCF702
:104E500073FB10BD005C0040E0010020801A0600DA
:104E600010B50F480F4908604FF482704860002168
:104E70000C488160C1600221016101214161490248
:104E800081613821C16100210162416281620A2190
:104E9000C162FEF7CFFA08B1FCF74EFB10BD00006F
:104EA000003001403402002000B587B01C21684664
:104EB000FBF7BEF91548164908600020486000213C
:104EC0001348816041F28731C16000210161816135
:104ED000FEF756FD08B1FCF72FFB0D48FFF753F81E
:104EE00008B1FCF729FB602000900020019002909F
:104EF0000490002269460648FEF7C3FF08B1FCF79C
:104F00001BFB0348FEF78AFF07B000BD00440140C9
:104F10009403002000B587B0002003900490059012
:104F20000690019002904FF0804014490860532091
:104F3000486000211148816040F2E731C1600021E2
:104F4000016180218161FEF71BFD08B1FCF7F4FAD5
:104F50004FF48050039003A90848FEF721FE08B1E2
:104F6000FCF7EAFA00200190029001A90348FEF73D
:104F7000ADFC08B1FCF7E0FA07B000BD4C0300201F
:104F800010B50B480B4908600B48486000210948E0
:104F90008160C1604FF4806101610C214161002199
:104FA0008161C161FFF7F1F808B1FCF7C5FA10BDE6
:104FB00000480040DC030020A086010010B52DED64
:104FC000108B98B00446B0EE40AAF0EE60AAB0EEA6
:104FD00041BAF0EE61CAF0EE42BAB0EE62CAF0EE4B
:104FE000439AB0EE638AF0EE448AF5EEC09AF1EE91
:104FF00010FA1CD1B5EEC08AF1EE10FA17D1F5EE19
:10500000C08AF1EE10FA12D1F0EE4C2AB0EE6B2A03
:10501000F0EE6C1AB0EE4B1AF0EE6A0AB0EE4A0AE5
:10502000204600F0A1FA18B0BDEC108B10BDF5EED3
:10503000C0CAF1EE10FA09D1F5EEC0BAF1EE10FADD
:1050400004D1B5EEC0CAF1EE10FA7CD06CEEAC0A19
:105050004BEEAB0A4CEE0C0AB0EE600A04F0E4FE34
:10506000B0EE409A2CEE890AF0EE40CA2BEE890A87
:10507000F0EE40BA2CEE090AB0EE40CA69EEA90A79
:1050800048EE080A48EEA80AB0EE600A04F0CCFE2A
:10509000B0EE409A29EE890AF0EE409A28EE090A0D
:1050A000B0EE408A28EE890AF0EE408A94ED000ABC
:1050B00020EE000A8DED170A94ED000AD4ED010AE6
:1050C00020EE20EA94ED000AD4ED020A20EE20DA68
:1050D00094ED000AD4ED030A20EE200A8DED160AA5
:1050E00094ED010A20EE000A8DED150A94ED010AF7
:1050F000D4ED020A20EE200A8DED140A94ED010A87
:10510000D4ED030A60EE20DA94ED020A60EE00EAC4
:1051100094ED020AD4ED030A20EE20FA94ED030A7E
:1051200060EE00FAB6EE000A30EE6E0A30EE6F0A5C
:1051300020EE291A9DED140ADDED160A70EE600AC4
:10514000B0EE410A00E060E108EE200A7DEE8D0A33
:1051500008EEA00AF0EE000A20EE200A8DED130AF8
:105160009DED140ADDED160A30EE200A60EE290AE4
:105170009DED150AB6EE001A31EE400A30EE6F1AB8
:10518000B0EE600A08EE010A7FEE4E0A08EEA00AB1
:10519000F0EE000A20EE200A8DED120A9DED130AB2
:1051A00060EE000A9DED120A40EE000A10EE901A21
:1051B0000846FBF748F8CDE900019DED000B03F030
:1051C000A9FF8DED020B9DED020B51EC100BFBF7CF
:1051D00065F811903DEECD0A20EE290A7FEE0E0A09
:1051E00008EE200ADDED150AB6EE001A71EE600A2F
:1051F00070EEEE0A08EEA00AF0EE000A20EE200A99
:105200008DED100A3DEECD0A8DED0F0A3EEE0F0A30
:105210008DED0E0A9DED170AF6EE000A30EE600ADB
:1052200030EE2F0A8DED0D0AB6EE000A30EE6E0A52
:1052300070EE6F0A9DED110A20EE800A3DEECD1A48
:10524000DDED100A00EE810A8DED0C0A9DED140AC9
:10525000DDED160A70EE600A9DED110A20EE800A5F
:105260003EEE0F1ADDED100A00EE810A8DED0B0AFD
:105270007DEE2D0A9DED110A20EE801A9DED150A96
:10528000F6EE000A30EEC00A70EE6E1ADDED100A7E
:10529000B0EE410A00EEA10A8DED0A0A9DED0D0A5D
:1052A0006BEE800A9DED0E0A4CEE400A9DED0A0A57
:1052B00028EE001A9DED0B0A08EEC01A30EE810AA6
:1052C0008DED090A9DED0F0A6CEE000A9DED0D0AA9
:1052D0004CEEC00A9DED0C0A28EE801A9DED0A0ADC
:1052E00009EEC01A30EE810A8DED080A9DED0E0A16
:1052F0006CEE800A9DED0F0A4BEEC00A9DED0B0A85
:1053000029EE801A9DED0C0A08EE401A30EE810A53
:105310008DED070A8C4890ED000AB5EEC00AF1EE5B
:1053200010FA44DDD0ED000A9DED090A60EE800A16
:10533000864890ED000A9FED861A00EE810A80ED06
:10534000000A8148D0ED000A9DED080A60EE800A4F
:10535000804890ED000A9FED7E1A00EE810A80EDF4
:10536000000A7948D0ED000A9DED070A60EE800A38
:10537000794890ED000A9FED761A00EE810A80EDE3
:10538000000A724890ED000A3AEE000AB0EE40AA18
:10539000704890ED000A3AEE800AF0EE40AA6E489E
:1053A00090ED000A3BEE000AB0EE40BA0EE09FED31
:1053B0006B0A664880ED000A9FED680A654880ED3B
:1053C000000A9FED660A644880ED000A644890ED8B
:1053D000001A9DED090AF0EE4A0A41EE000AB0EE0D
:1053E00060AA90ED001A9DED080AF0EE6A0A41EEFF
:1053F000000AF0EE60AA90ED001A9DED070AF0EEAB
:105400004B0A41EE000AB0EE60BA9FED560A2AEE52
:10541000000AB0EE40AA9FED530A2AEE800AF0EE91
:1054200040AA9FED500A2BEE000AB0EE40BA94ED70
:10543000000A8DED060A94ED010A8DED050A94ED42
:10544000020A8DED040A9DED050AB1EE400A60EEF8
:105450000A0A9DED040A40EE6A0A94ED030A40EE42
:105460004B0A94ED000A30EE800A84ED000A9DEDAF
:10547000060A60EE0A0A9DED040A40EE0B0A94ED5E
:10548000030A40EE6A0A94ED010A30EE800A84EDC8
:10549000010A9DED060A60EE2A0A9DED050A40EE1E
:1054A0004B0A94ED030A40EE0A0A94ED020A30EE2C
:1054B000800A84ED020A9DED060A20EE0B0ADDED5E
:1054C000050A00EEAA0ADDED040A00EECA0AD4EDD0
:1054D000030A30EE200A84ED030AD4ED000A60EEE0
:1054E000A00A94ED011AD4ED011A41EE210A94EDBF
:1054F000021AD4ED021A41EE210A94ED031AD4EDFA
:10550000031A41EE210AB0EE600A04F08DFCB0EE01
:10551000409A94ED000A20EE090A84ED000A94ED09
:10552000010A20EE090A84ED010A94ED020A20EE38
:10553000090A84ED020A94ED030A20EE090A84EDBB
:10554000030A00BF6FE500000001002004010020F5
:105550006F12833A080100200C01002000000000B7
:10556000FC0000206F12033A00B52DED068B0246B9
:10557000B0EE403AF0EE603AB0EE414AF0EE615AD9
:10558000F0EE424AB0EE625AF5EEC05AF1EE10FA71
:1055900009D1F5EEC04AF1EE10FA04D1B5EEC05AC9
:1055A000F1EE10FA7ED065EEA50A44EEA40A45EEAF
:1055B000050AB0EE600A04F037FCF0EE402A25EE52
:1055C000A20AF0EE405A24EEA20AF0EE404A25EE7E
:1055D000220AB0EE405A92ED010AD2ED030A20EE03
:1055E000200AD2ED000A92ED021AF0EE408A40EE57
:1055F000C18A92ED000AD2ED010A20EE200AD2ED16
:10560000020A92ED031AF0EE409A40EE819AD2ED32
:10561000000A92ED001AB6EE000A10EE810AD2EDF1
:10562000030A92ED031AB0EE409A00EE819A24EE3E
:10563000890AF0EE407A45EE697A25EE280AB0EE46
:1056400040AA05EEC9AA25EEA90AB0EE408A04EEEA
:10565000E88A7C4890ED000AB5EEC00AF1EE10FA37
:1056600040DD90ED000A60EE270A774890ED000AD1
:105670009FED761A00EE810A80ED000A714890EDE8
:10568000000A60EE0A0A724890ED000A9FED6F1A58
:1056900000EE810A80ED000A6A4890ED000A60EE93
:1056A000080A00E046E06B4890ED000A9FED671A9B
:1056B00000EE810A80ED000A634890ED000A33EEA7
:1056C000000AB0EE403A624890ED000A33EE800ADC
:1056D000F0EE403A5F4890ED000A34EE000AB0EE7A
:1056E000404A0EE09FED5C0A574880ED000A9FEDAE
:1056F0005A0A574880ED000A9FED570A554880ED39
:10570000000A5648D0ED000AB0EE430A00EEA70AA0
:10571000B0EE403AD0ED000AB0EE630A00EE8A0A1D
:10572000F0EE403AD0ED000AB0EE440A00EE880AEE
:10573000B0EE404A9FED4A0A23EE000AB0EE403A2E
:105740009FED470A23EE800AF0EE403A9FED440AAF
:1057500024EE000AB0EE404A92ED006AD2ED016AF2
:1057600092ED027AB1EE660A20EE030A07EE630AB2
:10577000D2ED030A00EEC40AD2ED000A30EE200A90
:1057800082ED000A26EE030A07EE040AD2ED030AB0
:1057900000EEE30AD2ED010A30EE200A82ED010AA2
:1057A00026EE230A06EEC40AD2ED030A00EE830AAF
:1057B000D2ED020A30EE200A82ED020A26EE040A39
:1057C00006EEA30A07EE430AD2ED030A30EE200AE2
:1057D00082ED030AD2ED000A60EEA00A92ED011AF2
:1057E000D2ED011A41EE210A92ED021AD2ED021A0F
:1057F00041EE210A92ED031AD2ED031A41EE210A7D
:10580000B0EE600A04F010FBF0EE402A92ED000AC0
:1058100020EE220A82ED000A92ED010A20EE220A11
:1058200082ED010A92ED020A20EE220A82ED020ABE
:1058300092ED030A20EE220A82ED030ABDEC068BEC
:1058400000BD000000010020040100206F12833A17
:10585000080100200C01002000000000FC000020D6
:105860006F12033A00BFFEE700BFFEE7B0EE401A3A
:1058700010B99FED510A704790ED110A80ED120AA0
:1058800090ED100A80ED110A80ED061AC0ED070AAE
:1058900031EE600A80ED100A90ED100AD0ED051A85
:1058A000F1EE611AB4EEE10AF1EE10FA0CDD90EDC2
:1058B000100AD0ED051AB4EEE10AF1EE10FA03D2A7
:1058C0009FED3D0A80ED100A90ED000AD0ED101A10
:1058D00020EE210A80ED0A0A90ED0B0AD0ED011AA4
:1058E00090ED102A01EE820A80ED0B0A90ED0E0A6F
:1058F00080ED0F0A90ED0D0A80ED0E0A90ED100A72
:10590000D0ED111A30EE610A80ED0D0A90ED020A19
:10591000D0ED0D1A20EE210A80ED0C0A90ED0B0A55
:10592000D0ED041AB4EEE10AF1EE10FA04DD90EDC8
:10593000040A80ED0B0A10E090ED0B0AD0ED041A7A
:10594000F1EE611AB4EEE10AF1EE10FA05D290ED33
:10595000040AB1EE400A80ED0B0A90ED0A0AD0ED80
:105960000B1A30EE210AD0ED0C1A30EE210A80ED30
:10597000090A90ED090AD0ED031AB4EEE10AF1EE3E
:1059800010FA04DD90ED030A80ED090A10E090EDB5
:10599000090AD0ED031AF1EE611AB4EEE10AF1EE54
:1059A00010FA05D290ED030AB1EE400A80ED090A23
:1059B00090ED090A5FE700000000000000B101B9A6
:1059C000704791ED000A80ED000A91ED010A80ED2B
:1059D000010A91ED020A80ED020A91ED030A80EDC1
:1059E000030A91ED040A80ED040A91ED050A80EDA9
:1059F000050A9FED0D0A80ED0F0A80ED0E0A80ED7D
:105A00000D0A9FED090A80ED090A80ED0C0A80ED70
:105A10000B0A80ED0A0A80ED120A80ED110A80ED72
:105A2000100A00BFCCE700000000000000B101B97F
:105A3000704780ED070AD1ED001AC0ED001AD1EDD4
:105A4000011AC0ED011AD1ED021AC0ED021AC0ED23
:105A5000030A80ED041ADFED0D1AC0ED0E1AC0ED39
:105A60000D1AC0ED0C1ADFED091AC0ED081AC0EDD1
:105A70000B1AC0ED0A1AC0ED091AC0ED111AC0EDDB
:105A8000101AC0ED0F1A00BFD2E70000000000009E
:105A900000B101B9704780ED070AD1ED001AC0EDE1
:105AA000001AD1ED011AC0ED011AD1ED021AC0EDB4
:105AB000021AC0ED030A80ED041ADFED0D1AC0EDE5
:105AC0000E1AC0ED0D1AC0ED0C1ADFED091AC0ED6B
:105AD000081AC0ED0B1AC0ED0A1AC0ED091AC0ED84
