:020000040800F2
:10000000F83700209D010008DD6B0008015500084D
:10001000D96B0008250A0008B5D0000800000000D0
:10002000000000000000000000000000E99F000840
:10003000B316000800000000D173000861A000089A
:10004000B7010008B7010008B7010008B7010008B0
:10005000B7010008B7010008B5160008B70100088D
:10006000B7010008BF160008C9160008B70100084C
:100070000D0D0008B7010008B7010008B70100081E
:100080001D0D0008B7010008B7010008390A000873
:10009000290A0008B7010008B7010008D3160008B4
:1000A000B7010008B7010008B7010008B701000850
:1000B00031A1000841A10008B7010008B7010008FC
:1000C000B7010008B7010008B7010008B701000830
:1000D000B7010008B7010008B7010008EDA6000845
:1000E000B7010008B7010008B7010008B701000810
:1000F000B7010008B7010008B7010008B701000800
:10010000B7010008B7010008B7010008B7010008EF
:10011000B7010008B7010008B7010008B7010008DF
:10012000B7010008B70100082D0D0008C51500082B
:10013000B7010008B7010008B7010008B7010008BF
:10014000490A0008B7010008B7010008E16B000880
:10015000B7010008B7010008B7010008B70100089F
:10016000B7010008B7010008B7010008B70100088F
:10017000B7010008B7010008B7010008000000003F
:10018000B7010008B7010008DFF80CD000F074F9DF
:100190000048004741EE0008F83700200648804735
:1001A00006480047FEE7FEE7FEE7FEE7FEE7FEE75C
:1001B000FEE7FEE7FEE7FEE71DA100088901000853
:1001C0002DE9F05F0546002092469B46884606468C
:1001D000814640241BE0284641464746224600F01F
:1001E000B2F853465A46C01A914110D311461846E8
:1001F000224600F099F82D1A67EB01084F46224677
:100200000120002100F090F817EB00094E41201E5C
:10021000A4F10104DFDC484631462A464346BDE8E6
:10022000F09F40EA01039B0703D009E008C9121FB1
:1002300008C0042AFAD203E011F8013B00F8013BA0
:10024000521EF9D27047D2B201E000F8012B491ECC
:10025000FBD270470022F6E710B513460A46044663
:100260001946FFF7F0FF204610BD00F0004230F0C5
:1002700000400AD0C10D01F56071C0F3160042EADA
:100280000151C208400711437047002001467047E2
:1002900030B5041E71F1000404DB4FF0004440420D
:1002A00064EB0101141E73F1000405DB1C464FF0E2
:1002B0000043524263EB04038B4208BF824230BDCD
:1002C00030B5041E71F1000404DB4FF000444042DD
:1002D00064EB0101141E73F1000405DB1C464FF0B2
:1002E0000043524263EB0403994208BF904230BD81
:1002F00001F0004330B421F0004150EA010206D081
:100300000A0DA2F56072C1F31301002A02DC30BCB1
:1003100000207047440F44EAC104C100E01830BC1B
:1003200000EBC25000F01FB8202A04DB203A00FA8C
:1003300002F1002070479140C2F1200320FA03F33C
:10034000194390407047202A04DB203A21FA02F03A
:100350000021704721FA02F3D040C2F120029140FF
:100360000843194670470029A8BF7047401C490040
:1003700008BF20F00100704710B4B0FA80FC00FA0A
:100380000CF050EA010404BF10BC704749B1CCF135
:10039000200421FA04F411FA0CF118BF01212143C1
:1003A0000843A3EB0C01CB1D4FEA00614FEA10207C
:1003B00042BF002010BC704700EBC350104400291E
:1003C000A4BF10BC7047401C490008BF20F00100CA
:1003D00010BC70472DE9F04D00231A461B1A8A41C4
:1003E00003DB00200146BDE8F08DC1F30A52C1F3E2
:1003F000130141F480154FF0000BD10702D1001812
:100400006D41521E0027044640F2FF11384601EBB1
:10041000620A3E468046024600204FF48011FFF7F4
:1004200092FFC2197141BB1846EB0100B4EB030CFB
:1004300075EB000C04D3E41A65EB000517460E4675
:10044000241908F101006D4180463428E3DDF919D3
:1004500046EB0600091BA84103D24FF0FF321346BA
:1004600001E0002213461BEB070046EB0A51BDE8F2
:10047000F04D00F013B80000064C074D06E0E068B0
:1004800040F0010394E8070098471034AC42F6D3DB
:10049000FFF77EFE1CF500083CF5000810B5141EA1
:1004A00073F1000408DA401C41F1000192185B412D
:1004B0001A4301D120F0010010BD2DE9F04D924604
:1004C0009B4611B1B1FA81F202E0B0FA80F220321B
:1004D0009046FFF729FF04460F4640EA0A0041EA2A
:1004E0000B0153465A46084313D0114653EA010004
:1004F00019D0C8F140025046FFF725FF05460E46C9
:10050000504659464246FFF70FFF084305D00120E9
:1005100004E020463946BDE8F08D0020054346EA58
:10052000E0762C4337430A986305E40AA0EB080001
:100530000022FD0A44EA47540A3002D50020014651
:10054000E9E7010510196941DDE90845001969412C
:10055000BDE8F04DA2E770B58C1810F8015B15F0FE
:10056000070301D110F8013B2A1106D110F8012B25
:1005700003E010F8016B01F8016B5B1EF9D12B074A
:1005800005D40023521E0DD401F8013BFAE710F800
:10059000013BCB1A921C03E013F8015B01F8015BED
:1005A000521EF9D5A142D8D3002070BDB7EE000A83
:1005B00080ED000A9FED060A80ED010A9FED040A16
:1005C00080ED020A9FED020A80ED030A70470000E9
:1005D000000000002DE9F0412DED028B0646B0EE43
:1005E000408A0C4615461F4695ED023AF0EE432A26
:1005F00095ED013AB0EE432A95ED003AF0EE431A3C
:1006000094ED023AB0EE431A94ED013AF0EE430A4B
:1006100094ED003AB0EE430A9FED064ADFED053A4D
:100620009FED043A304605F083FEBDEC028BBDE839
:10063000F08100000000000070B505460C46002661
:100640000DB1022C00D870BDA11E4FF6FF722846D6
:1006500001F048F80646A01E2E54310A601E2954A7
:1006600000BFF0E710B501221021024802F0ACF8FB
:1006700010BD00000000024010B500221021024809
:1006800002F0A2F810BD0000000002407047000018
:1006900010B501221146024802F096F810BD000084
:1006A0000004024010B500220121024802F08CF83B
:1006B00010BD00000004024010B543781B021BB2BD
:1006C0000478234300EE103AB8EEC01A1C4BD3ED69
:1006D000001A21EE211A81ED001AC3781B021BB209
:1006E0008478234300EE103AB8EEC01A144BD3EDD1
:1006F000001A21EE211A81ED011A43791B021BB267
:100700000479234300EE103AB8EEC01A0C4BD3ED37
:10071000001A21EE211A81ED021A037A1B04C47912
:1007200043EA04238479234300EE903AB8EE601A3A
:10073000DFED041A21EE211A82ED001A10BD00002F
:100740003C02002000401C42704710B50446204681
:100750000DF03EFB10BD10B5044620460DF060FBC9
:1007600010BD00004278120212B203781A4300EE64
:10077000102AF8EEC00A144A92ED001A60EE810ABF
:10078000C1ED000AC278120212B283781A4300EE59
:10079000102AF8EEC00A0C4A92ED001A60EE810AA7
:1007A000C1ED010A4279120212B203791A4300EE36
:1007B000102AF8EEC00A044A92ED001A60EE810A8F
:1007C000C1ED020A704700004002002010B500246D
:1007D000FFF75CFFFFF7B8FF0CF088FF10B144F0A3
:1007E000800402E00CF0E8FE04430DF077F910B14C
:1007F00044F0400402E00DF0F7F80443204610BD39
:100800002DE9FC4105460E46174600200090019058
:10081000FFF732FF922000F0D1F80622694612203D
:1008200000F0ACF8FFF71EFF9DF80100000200B2D7
:100830009DF8001040EA010400EE104AB8EEC00A2C
:100840004C48D0ED000A20EE200A86ED000A9DF803
:100850000300000200B29DF8021040EA010400EE1D
:10086000104AB8EEC00A4348D0ED000A20EE200A34
:1008700086ED010A9DF80500000200B29DF8041003
:1008800040EA010400EE104AB8EEC00A3948D0ED43
:10089000000A20EE200A86ED020AFFF703FF082275
:1008A0006946002000F06AF8FFF7F2FE9DF80000AC
:1008B0000F2838D19DF80300000200B29DF8021005
:1008C00040EA010400EE104AB8EEC00A2A48D0ED12
:1008D000000A20EE200A85ED000A9DF805000002BE
:1008E00000B29DF8041040EA010400EE104AB8EE90
:1008F000C00A2148D0ED000A20EE200A85ED010A49
:100900009DF80700000200B29DF8061040EA0104BD
:1009100000EE104AB8EEC00A1748D0ED000A20EEEB
:10092000200A85ED020AFFF7A7FEA22000F046F894
:1009300002226946222000F021F8FFF793FE9DF87D
:100940000000C0009DF8011040EA6114B4F5806F0A
:1009500002DBA4F5006004B200EE104AF8EEC00A13
:10096000B4EE001AB3EE070A00EE810A87ED000A22
:10097000BDE8FC813C0200204002002070B5064624
:100980000C46154646F0800000F018F806E05520A9
:1009900000F014F82070641C681EC5B2002DF6D15A
:1009A00070BD70B504460D4644F0800000F006F8B6
:1009B000552000F003F8287070BD000001B582B02A
:1009C0004FF47A70012301AA02A90090024803F0B3
:1009D0001FFE9DF804000EBD0804002010B502465D
:1009E0001378DB00547843EA6410B0F5806F02DBC3
:1009F000A0F5006318B200EE100AF8EEC00AB4EEDB
:100A0000001AB3EE070A00EE810A81ED000A10BD5C
:100A100070B505460C462846FFF7D0FF2046FFF785
:100A2000CDFF70BD00BFFEE710B5024801F0A5F88C
:100A300010BD00006403002010B5024801F09DF8CD
:100A400010BD00006403002010B5024801F095F8C5
:100A500010BD00008C03002038B505460C4606206A
:100A60000B49086000208860C860082008610949B7
:100A70000D704C7000208870C870087148718871C2
:100A8000C8716B460A460249034800F074FE38BD3F
:100A900024170020C40100208C03002070B50446F8
:100AA0000D46B4F90600404200EE100AB8EEC00A46
:100AB0001A4880ED000AB4F90400404200EE100A22
:100AC000B8EEC00A164880ED000AB4F9000000EE46
:100AD000100AB8EEC00A134880ED000A12480580DB
:100AE000B0F900300F4890ED000ABDEEC00A10EEDC
:100AF000100A02B20A4890ED000ABDEEC00A10EEDC
:100B0000100A01B2054890ED000ABDEEC00A10EED1
:100B1000100A00B200F058F870BD0000EC0100208F
:100B2000F0010020F4010020F8010020F8B504468F
:100B30000D4616464FF400700E490860002088608C
:100B4000C86008200861280A0B4908704D70300AF7
:100B50008870CE70200A08714C7100208871C871AD
:100B60006B460A460349054800F005FE0449086043
:100B7000F8BD0000C40B0020BC000020640300206E
:100B8000D800002038B5044602200C490860002037
:100B90008860C86008200861200A094908704C7004
:100BA00000208870C870087148718871C8716B46E0
:100BB0000A460249034800F0DEFD38BDAC160020AD
:100BC000B40100208C030020F8B507460C461546FA
:100BD0001E4601201149086000208860C860082076
:100BE0000861380A0E4908704F70200A8870CC706E
:100BF000280A08714D718E71300AC87108468079D3
:100C0000C97940EA012000B2064908806B46044ACF
:100C10000249054800F0AFFDF8BD00009416002021
:100C2000AC010020DC0100208C0300200346042BD3
:100C300015D007DC7BB1012B0ED0022B0DD0032B7E
:100C400012D10BE0202B0BD0212B0AD0222B09D064
:100C5000232B09D107E008E007E006E005E004E007
:100C600003E002E001E000E000BF00BF00207047A9
:100C70000020704710B50022044905480AF07BF8AF
:100C8000044903480AF068F8002010BD6A240020D7
:100C90006C1700206A1C002070B505460C462846DB
:100CA00021680CF009FA18B1284621680CF0ACFF55
:100CB000294604480AF050F802480AF019F80020C2
:100CC00070BD00006C17002010B503460C460021D3
:100CD000084610BD2DE9F04104460D4600260A489D
:100CE000D0F8BC72D7F8140210B10120BDE8F08131
:100CF0002A46214604480AF03EF803480AF0EEF876
:100D000006463046F2E700006C17002010B5024896
:100D100001F05CFA10BD0000E806002010B50248A2
:100D200001F054FA10BD00008806002010B5FE48FE
:100D3000C06C0068FD49884276D9FC485438006888
:100D4000F949C96C0968FA4A914201D1202169E048
:100D5000F549C96C0968F54A483A914201D1202108
:100D600060E0F149C96C0968F14A6032914201D1F1
:100D7000202157E0EC49C96C0968EC4A18329142CD
:100D800001D120214EE0E849C96C0968E84A1832CF
:100D9000914201D1C91445E0E349C96C0968E34AAD
:100DA000303A914201D1C9143CE0DF49C96C09686D
:100DB000DF4A7832914201D1C91433E0DA49C96C73
:100DC0000968DA4A3032914201D1C9142AE0D64981
:100DD000C96C0968D64A3032914202D14FF40011F1
:100DE00020E0D149C96C0968D04A183A914202D131
:100DF0004FF4001116E0CC49C96C0968CC4A903216
:100E0000914202D14FF400110CE0C749C96C096846
:100E1000C64A4832914203D14FF4001102E003E088
:100E20004FF00061084070E1BF48C06C0068C049E5
:100E3000A831884276D9BD4858380068BA49C96C8B
:100E40000968BB4A914201D1202169E0B649C96CC9
:100E50000968B64A483A914201D1202160E0B2497E
:100E6000C96C0968B24A6032914201D1202157E031
:100E7000AD49C96C0968AD4A1832914201D12021AF
:100E80004EE0A949C96C0968A94A1832914201D1BA
:100E9000C91445E0A449C96C0968A44A303A914292
:100EA00001D1C9143CE0A049C96C0968A04A783254
:100EB000914201D1C91433E09B49C96C09689B4A2E
:100EC0003032914201D1C9142AE09749C96C0968AE
:100ED000974A3032914202D14FF4001120E09249FA
:100EE000C96C0968914A183A914202D14FF4001135
:100EF00016E08D49C96C09688D4A9032914202D141
:100F00004FF400110CE08849C96C0968874A4832DF
:100F1000914203D14FF4001102E003E04FF0006171
:100F20000840F2E08048C06C00688149483188423E
:100F300076D97F48103840687B49C96C09687C4A7B
:100F4000914201D1202169E07749C96C0968774A4B
:100F5000483A914201D1202160E07349C96C096887
:100F6000734A6032914201D1202157E06E49C96C29
:100F700009686E4A1832914201D120214EE06A4937
:100F8000C96C09686A4A1832914201D1C91445E016
:100F90006549C96C0968654A303A914201D1C91462
:100FA0003CE06149C96C0968614A7832914201D1DB
:100FB000C91433E05C49C96C09685C4A303291421B
:100FC00001D1C9142AE05849C96C0968584A30321D
:100FD000914202D14FF4001120E05349C96C0968D5
:100FE000524A183A914202D14FF4001116E04E498C
:100FF000C96C09684E4A9032914202D14FF40011F7
:101000000CE04949C96C0968484A4832914203D109
:101010004FF4001102E003E04FF00061084074E07B
:101020004348103800684049C96C0968404A9142F9
:1010300001D1202168E03C49C96C09683B4A483A23
:10104000914201D120215FE03749C96C0968384AD3
:101050006032914201D1202156E03349C96C0968C0
:10106000324A1832914201D120214DE02E49C96CFB
:1010700009682F4A1832914201D1C91444E02A4923
:10108000C96C0968294A303A914201D1C9143BE040
:101090002549C96C0968264A7832914201D1C914A0
:1010A00032E02149C96C0968204A3032914201D1AD
:1010B000C91429E01C49C96C09681D4A30329142A3
:1010C00002D14FF400111FE01749C96C0968174A93
:1010D000183A914202D14FF4001115E01249C96C3F
:1010E0000968134A9032914202D14FF400110BE08B
:1010F0000D49C96C09680D4A4832914202D14FF43A
:10110000001101E04FF00061084000286FD0064850
:10111000C06C0068054988427BD90348C06C0068F0
:101120000349884208D105E00804002058640240C1
:1011300010600240202068E0FE48C06C0068FE4954
:10114000884201D1202060E0FA48C06C0068FB4969
:10115000884201D1202058E0F648C06C0068F6496A
:101160006031884201D120204FE0F248C06C006815
:10117000F2494839884201D1C01446E0ED48C06CBC
:101180000068ED491831884201D1C0143DE0E948BA
:10119000C06C0068E9491831884201D1C01434E0BC
:1011A000E448C06C0068E4497831884201D1C01439
:1011B0002BE0E048C06C0068E0493039884202D139
:1011C0004FF4001021E0DB48C06C0068DA49303190
:1011D000884202D14FF4001017E0D648C06C006876
:1011E000D6493031884204D14FF400100DE0DFE1E0
:1011F0000FE0D048C06C0068CF499031884202D1DE
:101200004FF4001001E04FF00060CB49091F086067
:101210006AE1C848C06C0068C8494831884274D93E
:10122000C448C06C0068C5496039884201D120209B
:1012300066E0C048C06C0068BF49884201D12020E8
:101240005EE0BC48C06C0068BC49884201D12020E7
:1012500056E0B848C06C0068B7496031884201D197
:1012600020204DE0B348C06C0068B449483988423A
:1012700001D1C01444E0AF48C06C0068AE491831D9
:10128000884201D1C0143BE0AA48C06C0068AB4959
:101290001831884201D1C01432E0A648C06C006801
:1012A000A5497831884201D1C01429E0A148C06C19
:1012B0000068A2493039884202D14FF400101FE083
:1012C0009C48C06C00689C493031884202D14FF480
:1012D000001015E09748C06C00689849303188428A
:1012E00002D14FF400100BE09248C06C00689249A4
:1012F0009031884202D14FF4001001E04FF00060BD
:101300008D4908390860EFE0FFE78A48C06C006843
:101310008A491839884274D98648C06C0068874960
:101320006039884201D1202066E08248C06C0068A4
:101330008149884201D120205EE07E48C06C00686F
:101340007E49884201D1202056E07A48C06C00686E
:1013500079496031884201D120204DE07548C06C48
:10136000006876494839884201D1C01444E0714888
:10137000C06C006870491831884201D1C0143BE04C
:101380006C48C06C00686D491831884201D1C014A6
:1013900032E06848C06C006867497831884201D102
:1013A000C01429E06348C06C006864493039884241
:1013B00002D14FF400101FE05E48C06C00685E4927
:1013C0003031884202D14FF4001015E05948C06C0A
:1013D00000685A493031884202D14FF400100BE0C6
:1013E0005448C06C006854499031884202D14FF48F
:1013F000001001E04FF0006050497039C86073E0A0
:10140000FFE74C48C06C00684C496039884201D104
:10141000202066E04748C06C00684749884201D1F7
:1014200020205EE04348C06C00684449884201D1F6
:10143000202056E03F48C06C00683F496031884238
:1014400001D120204DE03B48C06C00683B49483941
:10145000884201D1C01444E03648C06C0068364967
:101460001831884201D1C0143BE03248C06C00689A
:1014700032491831884201D1C01432E02D48C06C85
:1014800000682D497831884201D1C01429E02948EB
:10149000C06C006829493039884202D14FF40010ED
:1014A0001FE02448C06C006823493031884202D1D3
:1014B0004FF4001015E01F48C06C00681F49303120
:1014C000884202D14FF400100BE01A48C06C00684B
:1014D00019499031884202D14FF4001001E04FF0D9
:1014E00000601649703988601548007800F00200E5
:1014F00078B11348007820F00200114908700846BE
:10150000007840F004000870012211460D4801F0F7
:101510005BF90D48007800F00200E0B10A4800785D
:1015200020F00200084908700846007840F00400E6
:1015300008700BE008040020106402407060024054
:101540003500002000040240360000200122102156
:10155000184801F039F91848007800F0020078B115
:101560001548007820F002001349087008460078FA
:1015700040F004000870012210210E4801F024F907
:101580000DF0B4F80D48007800F0040080B10B486D
:10159000007820F00400094908700846007840F0FF
:1015A000080008700648006840F00100044908601F
:1015B00010BD000000000240370000203500002070
:1015C000103C014010B5024800F000FE10BD0000C4
:1015D000C00400200146087810381823B0FBF3F24D
:1015E0000848805CC865032A05D908686FF30900BC
:1015F000001D886503E008686FF309008865886D41
:1016000070470000A8F20008014600208A6A8B6932
:10161000CBB932B1012A0DD0022A03D0032A10D14E
:101620000EE000BFCB6A03F08073B3F1807F00D17E
:10163000012007E0CB6AB3F1C07F00D1012001E0B7
:1016400000E000BF34E08B69B3F5005F1AD132B11E
:10165000012A07D0022A03D0032A11D10AE000BFD1
:1016600001200EE0CB6A03F08073B3F1807F00D1DC
:10167000012006E0CB6AB3F1C07F00D1012000E079
:1016800000BF15E032B1012A05D0022A04D0032A96
:101690000CD103E000BF00BF012008E0CB6A03F0DB
:1016A0008073B3F1807F00D1012000E000BF00BF54
:1016B0007047704710B5012000F07EFF10BD10B5D7
:1016C000082000F079FF10BD10B5102000F074FF65
:1016D00010BD10B5202000F06FFF10BD72B600BF26
:1016E000FEE7000030B5034613B94FF6FF7030BD7A
:1016F00009E013F8014B82EA0400C0B2054D35F849
:10170000100080EA2222081EA1F10101F1D1104649
:10171000EDE700001AF3000870B50A480468001DE0
:101720000568001D0668344454B108220649204665
:1017300004F030FB042204491031284604F02AFB4F
:1017400070BD0000107AFF1F9E02002010B50246F7
:1017500092F82030012B01D0022B06D1106840698D
:10176000084314686061002010BD506A40F4802076
:1017700050620120F8E7F0B504460D461E4694F885
:10178000207020688368A86800B900E000BF012FBE
:1017900001D0022F7DD103F0806030B903F00060EA
:1017A00018B903F0805000287ED0C3F301610120F6
:1017B00088403060A86860B9B5F800C0E86840EAC1
:1017C0004C5C206800F5C07000EB0110C0F800C050
:1017D0000FE0D5E901C040EACC00D5F80CC040EAE2
:1017E0000C00D4F800C00CF5C07C0CEB011CCCF84C
:1017F0000000D5F810C0206800F5C07000EB0110A3
:10180000C0F804C0287D01280ED1206800F5C07002
:1018100000EB0110406840F4807C206800F5C07047
:1018200000EB0110C0F804C0D079000692F806C0A1
:1018300040EA0C4092F805C040EA0C2092F804C03F
:1018400040EA0C00D4F800C00CF5C07C0CEB011C85
:10185000CCF80C00D078000692F802C040EA0C40A8
:1018600092F801C040EA0C2092F800C040EA0C0057
:10187000D4F800C00CF5C07C0CEB011CCCF80800BF
:10188000206800F5C07000EB0110006840F0010C0A
:1018900001E00FE008E0206800F5C07000EB0110E7
:1018A000C0F800C00020F0BD606A40F40010606223
:1018B0000120F8E7606A40F4802060620120F2E7CE
:1018C000F0B504460A46216894F82050012D01D055
:1018D000022D7ED1424901F50071086840F00100F7
:1018E0000860086820F47C5008600868566A40EA7E
:1018F00006200860107D00F01F06012000FA06F3A4
:10190000C8699843C861A1F50071D069C8B9D1F818
:101910000C029843C1F80C02908880B2968940EA84
:10192000064601F51070576940F83760108880B29C
:10193000168940EA064601F51070576900EBC700AA
:101940004660D069012819D1D1F80C021843C1F8BA
:101950000C02908880B2168840EA064601F51070A5
:10196000576940F83760908980B2168940EA064688
:1019700001F51070576900EBC7004660906928B9FF
:10198000D1F804029843C1F8040204E0D1F804023B
:101990001843C1F80402106928B9D1F81402984319
:1019A000C1F8140204E0D1F814021843C1F814027B
:1019B000106A012804D1D1F81C021843C1F81C0296
:1019C000D1F8000220F00100C1F800020020F0BDB3
:1019D000FFE7606A40F4802060620120F7E70000C2
:1019E00000640040704770B5044694F82050012D03
:1019F00001D0022D7DD151B92068C06800F00300EC
:101A000080B9606A40F400106062012070BD2068F7
:101A1000006900F0030028B9606A40F400106062B9
:101A20000120F3E7206800F5D87000EB0110006892
:101A300000F004009060906840B9206800F5D8700C
:101A400000EB01100068400D106007E0206800F511
:101A5000D87000EB01100068C0085060206800F5E5
:101A6000D87000EB0110006800F00200D060206820
:101A700000F5D87000EB0110406800F00F00082856
:101A800002D30820106108E0206800F5D87000EB50
:101A90000110406800F00F001061206800F5D87058
:101AA00000EB0110406800F47F40000A906120685C
:101AB00000F5D87000EB01104068000C5061206800
:101AC00000F5D87000EB011080681870206800F5F0
:101AD000D87000EB0110806800F47F40000A587055
:101AE000206800F5D87000EB0110806800F47F00DA
:101AF00000E03CE0000C9870206800F5D87000EB26
:101B000001108068000ED870206800F5D87000EBD6
:101B10000110C0681871206800F5D87000EB011042
:101B2000C06800F47F40000A5871206800F5D87042
:101B300000EB0110C06800F47F00000C9871206871
:101B400000F5D87000EB0110C068000ED87131B9F3
:101B50002068C06840F020002668F06005E020683A
:101B6000006940F020002668306100204EE7606A7E
:101B700040F480206062012048E72DE9F05F0446D0
:101B80000025206846692068D0F80490206887689E
:101B90002068D0F80CA02068D0F810B02068D0F8E9
:101BA000188006F00100002855D007F00100C0B1F0
:101BB00001202168886007F0020018B1204600F07B
:101BC000FEFA0EE007F0040010B145F4006508E0ED
:101BD00007F0080010B145F4805502E0204600F0FF
:101BE000EDFA07F48070C8B14FF480702168886006
:101BF00007F4007018B1204600F0E3FA0EE007F495
:101C0000806010B145F4005508E007F4006010B1A1
:101C100045F4804502E0204600F0D2FA07F4803017
:101C2000C8B14FF480302168886007F4003018B1E3
:101C3000204600F0C8FA0EE007F4802010B145F409
:101C4000004508E007F4002010B145F4803502E0BB
:101C5000204600F0B7FA06F0080038B10AF010008C
:101C600020B145F4007510202168C86006F004001A
:101C700040B10AF0080028B108202168C860204659
:101C800000F014FA06F0020038B12068C06800F0D5
:101C9000030010B1204600F00BFA06F0400038B106
:101CA0000BF0100020B145F4806510202168086118
:101CB00006F0200040B10BF0080028B10820216890
:101CC0000861204600F048FA06F0100038B120689C
:101CD000006900F0030010B1204600F03EFA06F45F
:101CE000003040B109F0100028B110202168486090
:101CF000204600F033FA06F4803040B109F00800C5
:101D000028B1082021684860204600F05DFA06F4FA
:101D1000004088B309F0040078B306F4807020B165
:101D200008F0010008B145F0010506F4007020B18B
:101D300008F0020008B145F0020506F4806020B109
:101D400008F0040008B145F0040506F40060A0B1F5
:101D500008F0700088B108F07000402817D006DC49
:101D600010280BD020280CD0302819D10CE0502896
:101D700010D0602814D110E01DE019E045F00805EE
:101D80000FE045F010050CE045F0200509E045F0B6
:101D9000400506E045F0800503E045F4807500E06D
:101DA00000BF00BF2068806920F070002168886152
:101DB0000420216848602DB1606A28436062204693
:101DC000FFF710FEBDE8F09F70B504460CB9012086
:101DD00070BD94F8200010B9204600F0AFF82068DC
:101DE000006840F001002168086000F0F3FC05463F
:101DF0000DE000F0EFFC401B0A2808D9606A40F4AF
:101E000000306062052084F820000120E0E72068AF
:101E1000406800F001000028EBD02068006820F046
:101E200002002168086000F0D5FC05460DE000F0D6
:101E3000D1FC401B0A2808D9606A40F40030606277
:101E4000052084F820000120C2E72068406800F0E7
:101E500002000028EBD1207E012806D1206800680E
:101E600040F080002168086005E02068006820F0EC
:101E7000800021680860607E012806D12068006823
:101E800040F040002168086005E02068006820F00C
:101E9000400021680860A07E012806D12068006803
:101EA00040F020002168086005E02068006820F00C
:101EB000200021680860E07E012806D120680068C3
:101EC00020F010002168086005E02068006840F0FC
:101ED000100021680860207F012806D12068006872
:101EE00040F008002168086005E02068006820F0E4
:101EF000080021680860607F012806D1206800681A
:101F000040F004002168086005E02068006820F0C7
:101F1000040021680860D4E90201084321690843EC
:101F2000616908436168491E08432168C86100204F
:101F30006062012084F82000002049E710B586B0D7
:101F40000446142101A8FEF785F952492068884209
:101F500049D151480068401C4F4908600846006854
:101F600001280FD100BF002000904C48006840F0CD
:101F700000704A4908600846006800F00070009050
:101F800000BF00BF00BF0020009044481038006828
:101F900040F008004149103908600846006800F028
:101FA0000800009000BF00BF0320019002200290B3
:101FB00000200390032004900920059001A93848CF
:101FC00000F008FB00220121132000F061FF132024
:101FD00000F04AFF00220121142000F059FF1420D4
:101FE00000F042FF54E02F492068884250D100BFE2
:101FF000002000902948006840F080602749086070
:102000000846006800F08060009000BF00BF2248D2
:102010000068401C204908600846006801280FD16C
:1020200000BF002000901D48006840F000701B4970
:1020300008600846006800F00070009000BF00BF14
:1020400000BF0020009015481038006840F00200E2
:102050001249103908600846006800F0020000903C
:1020600000BF00BF6020019002200290002003907A
:10207000032004900920059001A90B4800F0AAFA5A
:1020800000220121402000F003FF402000F0ECFE80
:1020900006B010BD0064004000000020403802403F
:1020A000000C02400068004000040240704700003D
:1020B00010B58AB004462249206888422BD101AB72
:1020C00003AA00211F48FFF78EFC0398A0F201200D
:1020D00058B1012813D002281BD101A91A480BF0CE
:1020E0003FFF19480DF07EF814E001A9164824308E
:1020F0000BF036FF144824300DF074F80AE001A903
:10210000114848300BF02CFF0F4848300DF06AF8AA
:1021100000E000BF00BF0D49206888420DD101AB2F
:1021200003AA00210A48FFF75EFC0398102803D198
:1021300006200849086000BF00BF0AB010BD0000BB
:102140000064004064030020EC0A002000680040A6
:102150008C030020D400002070477047704770B592
:10216000044694F82000012822D1022084F820009F
:102170002068006820F001002168086000F02AFB58
:1021800005460DE000F026FB401B0A2808D9606ACE
:1021900040F400306062052084F82000012070BD0A
:1021A0002068406800F001000028EBD16062F6E78B
:1021B000606A40F4002060620120F0E770477047D9
:1021C000704770477047704770470000F8B5044685
:1021D000002000908C4800684FF41651B0FBF1F7D6
:1021E000A56D2E6894F85C1008208840304098B1A6
:1021F0002068006800F0040070B12068006820F0DA
:1022000004002168086094F85C1008208840A860E9
:10221000606D40F00100606594F85C10012088401A
:10222000304068B12068406900F0800040B194F807
:102230005C1001208840A860606D40F0020060657D
:1022400094F85C1004208840304068B12068006831
:1022500000F0020040B194F85C1004208840A860AF
:10226000606D40F00400606594F85C1010208840B8
:10227000304078B32068006800F0080050B394F84C
:102280005C1010208840A8602068006800F480205E
:1022900080B12068006800F4002028B9206CC8B123
:1022A0002046216C884715E0A06C98B12046A16CAF
:1022B00088470FE02068006800F4807028B9206823
:1022C000006820F0080021680860206C10B12046EA
:1022D000216C884794F85C1020208840304000280A
:1022E00065D02068006800F0100000285FD094F8E6
:1022F0005C1020208840A86094F83500052828D17B
:102300002068006820F01600216808602068406995
:1023100020F0800021684861206C08B9A06C28B1C9
:102320002068006820F008002168086094F85C10BC
:102330003F208840A860012084F8350000BF0020BD
:1023400084F8340000BF206D10B12046216D88470D
:10235000F8BD2068006800F4802080B12068006823
:1023600000F4002028B9606C10B12046616C8847E9
:102370001DE0E06BD8B12046E16B884717E020688C
:10238000006800F4807068B92068006820F01000D0
:1023900021680860012084F8350000BF002084F81F
:1023A000340000BFE06B10B12046E16B8847606DE0
:1023B00038B3606D00F00100F0B1052084F83500FD
:1023C0002068006820F001002168086000BF0098C4
:1023D000401C0090B84200D905E02068006800F079
:1023E00001000028F3D100BF012084F8350000BFB0
:1023F000002084F8340000BFE06C10B12046E16C8E
:10240000884700BFA4E70000100000202DE9F0413C
:102410000446002500F0DEF9074614B90120BDE8A6
:10242000F081606A00B100BF022084F8350000BF6F
:10243000002084F8340000BF2068006820F001000C
:10244000216808600AE000F0C5F9C01B052805D91D
:1024500020206065032084F83500E0E720680068EC
:1024600000F001000028EED12068056821480540F1
:10247000D4E901010843E16808432169084361691F
:102480000843A1690843E1690843216A08430543F9
:10249000606A042803D1D4E90B010843054320688E
:1024A00005602068456925F00705606A0543606A94
:1024B00004280DD1A06A0543E06A48B12046FFF721
:1024C000A3F828B140206065012084F83500A6E714
:1024D000206845612046FFF77DF8064694F85C10B9
:1024E0003F208840B06000206065012084F83500FE
:1024F000002094E73F8010F070B5044600F06AF9C0
:1025000006462546681C10B104480078054400BF03
:1025100000F060F9801BA842FAD370BD0C000020C7
:1025200010B50446102C11D11D48007840F0010070
:102530001B4908701B48007840F0010019490870D9
:102540001948007858B30CF0D1F828E0202C0BD1B2
:102550001648007840F001001449087012480078CD
:10256000E8B10CF0C3F81AE0082C18D11048007834
:1025700040F001000E4908700846007800F00100A4
:10258000087060B10846007820F001000870084625
:10259000007840F00200087006480CF0EBF910BD1E
:1025A00036000020370000203900002035000020D0
:1025B000380000207C07002010B50446044800685D
:1025C000204020B1024804602046FFF7A9FF10BD5B
:1025D000143C0140F8B502460B46002500240020BB
:1025E0000021D6E0012606FA01F51E6806EA050478
:1025F000AC4274D11E7906F00306012E04D01E7978
:1026000006F00306022E13D190684F000326BE4049
:10261000B0434F00DE68BE403043906050680126F2
:102620008E40B0431E79C6F300168E403043506092
:102630001E7906F00306032E09D0D0684F0003264A
:10264000BE40B0434F009E68BE403043D0601E790C
:1026500006F00306022E13D1CF0802F1200656F829
:1026600027004E07F70E0F26BE40B0434F07FF0E60
:102670001E69BE403043CF0802F1200646F827000D
:1026800010684F000326BE40B0431E7906F00306D3
:102690004F00BE40304310605E6806F44036002EA6
:1026A00076D000BF002600963C4E366846F4804641
:1026B0003A4F3E603E46366806F48046009600BFBC
:1026C00000BF374E8F0856F827008E07370F0F26AA
:1026D000BE40B043334EB24202D1002624E057E060
:1026E000314EB24201D101261EE0304EB24201D13C
:1026F000022619E02E4EB24201D1032614E02D4EDF
:10270000B24201D104260FE02B4EB24201D1052680
:102710000AE02A4EB24201D1062605E0284EB24216
:1027200001D1072600E008268F073F0FBE40304347
:102730001B4E8F0846F82700224E3068A0435E6883
:1027400006F4801606B120431E4E3060361D3068F8
:10275000A0435E6806F4001606B12043194E361DEC
:102760003060184E361F3068A0435E6806F40036AD
:1027700006B12043134E361F3060361F3068A04329
:102780005E6806F4803606B120430E4E083E306087
:10279000491C1029FFF426AFF8BD00004438024060
:1027A00008380140000002400004024000080240D6
:1027B000000C0240001002400014024000180240C9
:1027C000001C0240083C01400AB1816101E00B0499
:1027D00083617047014800687047000004000020D2
:1027E00070B504460CB9012070BD94F83D0028B9BD
:1027F000002084F83C00204600F05EFA242084F893
:102800003D002068006820F0010021680860206811
:10281000006840F40040216808602068006820F4E7
:1028200000402168086001F01DFB05465C496068B6
:10283000884206D85B48854201D2012007E000208B
:1028400005E05948854201D2012000E0002001281E
:1028500000D1C9E75548B5FBF0F62068406820F084
:102860003F003043216848604D496068884201D884
:10287000701C07E04FF4967070434FF47A71B0FB10
:10288000F1F0401C2168096A21F03F0108432168EA
:10289000086243496068884214D8681E616849002C
:1028A000B0FBF1F0401CC0F30B00042801D204205F
:1028B0003DE0681E61684900B0FBF1F0401CC0F3C8
:1028C0000B0034E0A06838B9681E616801EB410173
:1028D000B0FBF1F0401C0AE0681E616801EBC10228
:1028E00002EB0111B0FBF1F0401C40F48040C0F35A
:1028F0000B0008B901201AE0A06848B9681E616899
:1029000001EB4101B0FBF1F0401CC0F30B000CE007
:10291000681E616801EBC10202EB0111B0FBF1F02E
:10292000401CC0F30B0040F4804040F4004021689C
:10293000C9694CF6FF72914308432168C861D4E924
:10294000070108432168096821F0C0010843216894
:102950000860D4E9031008432168896848F2FF320F
:102960009143084321688860D4E905010843216840
:10297000C96821F0FF0108432168C8602068006829
:1029800040F001002168086000202064202084F8C5
:102990003D000020206384F83E0000BF24E70000D3
:1029A000A086010080841E0000093D0040420F0007
:1029B0002DE9FC5F04460F4690469946DDE90CABD5
:1029C0000E9EFFF707FF054694F83D00202870D1C2
:1029D00019230122B5492046009502F063FE10B18B
:1029E0000220BDE8FC9F00BF94F83C00012801D103
:1029F0000220F6E7012084F83C0000BF2068006850
:102A000000F0010028B92068006840F0010021684A
:102A100008602068006820F40060216808602220B7
:102A200084F83D00402084F83E0000202064C4F873
:102A300024A0A4F82AB0608D20859D48E0624B4612
:102A4000424639462046CDE9006502F07BFD08B1DB
:102A50000120C6E7208D88B900BF002001902068C2
:102A60004069019020688069019000BF00BF206824
:102A7000006840F400702168086040E0208D012863
:102A800018D12068006820F480602168086000BFC9
:102A900000200190206840690190206880690190C1
:102AA00000BF00BF2068006840F400702168086023
:102AB00025E0F8E0208D022816D12068006820F477
:102AC0008060216808602068006840F40060216828
:102AD000086000BF002001902068406901902068D4
:102AE0008069019000BF0AE000BF002001902068CB
:102AF0004069019020688069019000BF00BFC3E079
:102B0000208D03287ED8208D012815D12A463146F4
:102B1000204602F0A3FE08B1012062E720680069A8
:102B2000616A0870606A401C6062208D401E2085CA
:102B3000608D401E6085A7E0208D02282AD1334693
:102B400000225C492046009502F0ACFD08B101204E
:102B500047E72068006840F400702168086020683A
:102B60000069616A0870606A401C6062208D401EC6
:102B70002085608D401E608520680069616A08704C
:102B8000606A401C6062208D401E2085608D401E62
:102B9000608579E03346002246492046009502F0E0
:102BA00081FD08B101201CE72068006820F48060E6
:102BB0002168086020680069616A0870606A401CCA
:102BC0006062208D401E2085608D401E60853346EA
:102BD000002238492046009502F064FD08B101202A
:102BE000FFE62068006840F40070216808602068F3
:102BF0000069616A0870606A401C6062208D401E36
:102C0000208500E010E0608D401E6085206800692E
:102C1000616A0870606A401C6062208D401E2085D9
:102C2000608D401E60852FE02A463146204602F026
:102C300015FE08B10120D4E620680069616A0870B9
:102C4000606A401C6062208D401E2085608D401EA1
:102C5000608520684069C0F38000A8B1208D0328FA
:102C600005D12068006820F4806021680860206831
:102C70000069616A0870606A401C6062208D401EB5
:102C80002085608D401E6085208D00287FF438AF40
:102C9000202084F83D00002084F83E0000BF84F826
:102CA0003C0000BF9DE602209BE6000002001000F1
:102CB0000000FFFF0400010010B586B00446142197
:102CC00001A8FDF7C7FA2A49206888424DD100BF04
:102CD000002000902748006840F004002549086063
:102CE0000846006800F00400009000BF00BF00BF6D
:102CF000002000900846006840F001000860084687
:102D0000006800F00100009000BF00BF481501906E
:102D100012200290002003900320049004200590CC
:102D200001A91548FFF756FC4FF48070019012205E
:102D3000029000200390032004900420059001A934
:102D40000E48FFF747FC00BF0020009009481030F4
:102D5000006840F400000749103108600846006828
:102D600000F40000009000BF00BF06B010BD0000DE
:102D7000005C004030380240000802400000024081
:102D8000034800680349097808440149086070470E
:102D9000040000200C00002010B50D48006840F42D
:102DA00000700B4908600846006840F480600860C5
:102DB0000846006840F480700860032000F0A6F820
:102DC0000F2000F007F800F02BF8002010BD0000E5
:102DD000003C024070B504460E4800784FF47A710A
:102DE000B1FBF0F00C490968B1FBF0F5284601F0A1
:102DF0002FFD08B1012070BD102C07D20022214602
:102E0000501E00F045F80548046001E00120F2E79B
:102E10000020F0E70C000020100000200800002037
:102E200008B500BF002000900E48006840F48040C4
:102E30000C4908600846006800F48040009000BF1C
:102E400000BF00BF00200090081F006840F08050C5
:102E5000091F08600846006800F08050009000BF1D
:102E600000BF08BD443802400146084600280DDB7B
:102E700000BF00BF00F01F0301229A4043099B00DE
:102E800003F1E023C3F8002100BF00BF00BF70477B
:102E90002DE9F05F80460D46164600270AF03EF900
:102EA000074639462A46334601F00700C0F1070AB3
:102EB000BAF1040F02D94FF0040A01E0C0F1070A89
:102EC000D14600F1040ABAF1070F02D24FF0000A0E
:102ED00001E0A0F1030AD4464FF0010A0AFA09FA08
:102EE000AAF1010A0AEA020A0AFA0CFA4FF0010BE7
:102EF0000BFA0CFBABF1010B0BEA030B4AEA0B04D8
:102F0000214640460AF012F9BDE8F09F00BF00F0EC
:102F10000702064B19684FF6FF031940044B0B4399
:102F200043EA0221014B196000BF70470CED00E03D
:102F30000000FA05704702461068416200207047A1
:102F4000F0B5034615461868446A21B944EA0540BD
:102F50001E68B06219E01868806A04EB1044002211
:102F600008E0186800F5827050F8220004EB104465
:102F7000501CC2B2481E9042F3D844EA0547186874
:102F800000F582704E1E40F826700020F0BD10B58E
:102F90000446D4F8E00408F008FC10BD70B50446FF
:102FA0000D4605EBC50304F1140101EB8301CA686A
:102FB0002946D4F8E00408F0F3FA70BD70B5044671
:102FC0000D4605EBC50304F5157101EB8301CA68D5
:102FD0002946D4F8E00408F067FB70BD10B504463C
:102FE000D4F8E00408F0E4FB10BD2DE9F0410446FC
:102FF0000D4605F08000802808D105F00F0000EB99
:10300000C00104F1140000EB810607E005F00F0099
:1030100000EBC00104F5157000EB81063146206815
:1030200009F00AFE07463846BDE8F08170B504464F
:103030000E4606F0800080280AD106F00F0000EB53
:10304000C00104F1140000EB81050120687009E063
:1030500006F00F0000EBC00104F5157000EB8105D0
:103060000020687006F00F00287000BF94F89404E8
:10307000012801D1022070BD012084F8940400BF12
:103080002946206809F06CF900BF002084F89404F8
:1030900000BF00BFEFE770B504460E4606F00F0014
:1030A0002179884201D9012070BD06F08000802876
:1030B0000AD106F00F0000EBC00104F1140000EB90
:1030C00081050120687009E006F00F0000EBC001E7
:1030D00004F5157000EB8105002068700020A870D1
:1030E00006F00F00287000BF94F89404012801D165
:1030F0000220D9E7012084F8940400BF2946206803
:1031000009F02CFB00BF002084F8940400BF00BF2E
:10311000CAE7024601F00F0000EBC00302F515708C
:1031200000EB8300406970472DE9F04705460E46E5
:1031300090461F464FF0000906F0800080280AD113
:1031400006F00F0000EBC00105F1140000EB810454
:103150000120607009E006F00F0000EBC00105F5EA
:10316000157000EB81040020607006F00F002070E5
:10317000C4F808802771607808B120786083022F36
:1031800001D10020607100BF95F89404012802D19C
:103190000220BDE8F087012085F8940400BF214695
:1031A000286808F0F1FF00BF002085F8940400BFF4
:1031B0004846EEE72DE9F04105460E46174698468B
:1031C00006F00F0000EBC00105F5157000EB81045F
:1031D000E760C4F8108000206061607006F00F00A6
:1031E0002070A879012800D1E761AA7921462868D2
:1031F00009F048FB0020BDE8F08170B504460D469B
:1032000005F00F002179884201D9012070BD05F039
:10321000800080280AD105F00F0000EBC00104F106
:10322000140000EB81060120707007E005EBC5017A
:1032300004F5157000EB8106002070700120B0705D
:1032400005F00F00307000BF94F89404012801D1FC
:103250000220DBE7012084F8940400BF3146206897
:1032600009F0C3FA05F00F0028B9A17904F29C42D5
:10327000206809F03BFA00BF002084F8940400BFE6
:1032800000BFC3E72DE9F04105460E4617469846B4
:1032900006F00F0000EBC00105F1140000EB810403
:1032A000E760C4F81080002060610120607006F0C3
:1032B0000F002070A879012800D1E761AA79214682
:1032C000286809F0DFFA0020BDE8F0812DE9FE4F03
:1032D0000446D4F800B05E46206809F08FFD00284F
:1032E00074D1206809F0C9FD08B9BDE8FE8F40F629
:1032F00008008059C0F30D20C4F8D404206809F0F8
:10330000BCFD00F00200022805D12068406900F0F1
:10331000020021684861206809F0AFFD00F010004C
:10332000102845D12068806920F01000216888614C
:10333000DBF8209009F00F0000EBC00104F51570D8
:1033400000EB810AC9F3434002281AD147F6F07016
:1033500009EA000030B3C9F30A125846DAF80C1033
:1033600009F090FDC9F30A11DAF80C000844CAF814
:103370000C00C9F30A11DAF814000844CAF8140062
:1033800010E0C9F3434006280CD1082204F29C4106
:10339000584609F077FDC9F30A11DAF81400084419
:1033A000CAF814002068806940F010002168886124
:1033B000206809F062FD00F40020B0F5002F7BD1F9
:1033C0000025206809F029FD029072E0E1E20298F0
:1033D00000F00100002868D0E9B2206809F040FD43
:1033E000804608F0010048B1012106F5306000EB8D
:1033F000451081602946204603F02CFC08F00800A7
:10340000082809D1082106F5306000EB45108160DD
:103410002946204603F0ECFB08F01000102805D1E7
:10342000102106F5306000EB4510816008F00200C5
:10343000022824D1DBF8140000F08000802807D196
:1034400040F60400805940F4806140F60400815148
:1034500005EBC50104F5157000EB810A9AF803002D
:10346000012806D100208AF80300E9B2204600F0C6
:103470009BFA022106F5306000EB4510816008F0F0
:103480002000202805D1202106F5306000EB4510F2
:10349000816008F40050B0F5005F06D14FF4005190
:1034A00006F5306000EB451081606D1C0298400805
:1034B0000290029800288AD1206809F0DEFC00F40E
:1034C0008020B0F5802F7DD1206809F09CFC02900F
:1034D00000259AE0029800F00100002873D0E9B2BC
:1034E000206809F0A4FC804608F00100F0B305F064
:1034F0000F0101208840019040F634008159019865
:1035000021EA000040F634018851012106F51060DF
:1035100000EB45108160A079012824D105EBC5019D
:1035200004F1140000EB810005EBC502C16804F151
:10353000140000EB82008068014405EBC50204F131
:10354000140000EB8200C1606DB905EBC50104F108
:10355000140000EB8100006928B904F29C420121AB
:10356000206809F0C3F8E9B2204600E001E0FFF767
:1035700015FD08F00800082805D1082106F510609F
:1035800000EB4510816008F01000102805D11021D3
:1035900006F5106000EB4510816008F040004028FF
:1035A00005D1402106F5106000EB4510816008F060
:1035B000020002281DD12946584609F0E2FB05EB1E
:1035C000C50101E025E01CE004F1140000EB810AD4
:1035D0009AF80300012806D100208AF80300E9B216
:1035E000204600F0D8F9022106F5106000EB4510E6
:1035F000816008F08000802803D12946204603F02E
:10360000CBFB6D1C029840080290029800287FF4C2
:1036100061AF206809F031FC00F00040B0F1004FCC
:103620001CD140F60400805920F0010140F604004E
:10363000815194F8CC04012807D1002084F8CC04EF
:1036400000212046FFF776FC02E0204600F0D0FA89
:103650002068406900F0004021684861206809F056
:103660000CFC00F40060B0F5006F0ED140F60800CD
:10367000805900F0010010B1204600F011FB2068D5
:10368000406900F4006021684861206809F0F5FB9A
:1036900000F48050B0F5805F7ED140F60400805980
:1036A00020F0010140F6040081511021206809F04A
:1036B00068FB002732E04FF67F3106F5106000EB23
:1036C0004710816006F5106000EB4710006820F499
:1036D000001106F5106000EB471001604FF67F31D6
:1036E00006F5306000EB4710816006F5306000EBB6
:1036F0004710006820F4001106F5306000EB471019
:10370000016006F5306000EB4710006840F0006192
:1037100006F5306000EB471001607F1C2079B8424D
:10372000C9D840F61C00805940F0011140F61C0039
:103730008151E07B70B1D6F8840840F00B01C6F8E7
:10374000841840F64400805940F00B0140F64400D4
:1037500081510FE040F61400805942F22B010843DA
:1037600040F614018851081F805940F00B014FF4B6
:1037700001608151D6F8000820F4FE60C6F8000808
:10378000A17904F29C42206808F0B0FF20684069EB
:1037900000F48050216800E000E04861206809F0F2
:1037A0006CFB00F40050B0F5005F17D1206808F002
:1037B00053FD206809F00FFBE07100F04DFB009015
:1037C000E2792068009909F0DFFB204600F0F8F963
:1037D0002068406900F4005021684861206809F0C1
:1037E0004CFB00F00800082808D1204600F007FA3A
:1037F0002068406900F0080021684861206809F0ED
:103800003CFB00F08000802818D1DBF8180020F085
:103810008000CBF8180001250DE005EBC50104F58B
:10382000157000EB8100C078012803D1E9B2204671
:10383000FFF7DBFB6D1C2079A842EED8206809F069
:103840001CFB00F48010B0F5801F2DD1012522E073
:1038500006F5106000EB4510D0F8009005EBC501AF
:1038600004F1140000EB81000079012812D109F065
:103870000040B0F1004F0DD1012105EBC50204F16C
:10388000140000EB8200C170E8B240F080012046D5
:10389000FFF7ABFB6D1C2079A842D9D8206840699E
:1038A00000F4801021684861206809F0E6FA00F40D
:1038B0000010B0F5001F44D1012538E006F5306056
:1038C00000EB4510D0F8009005EBC50104F515702C
:1038D00000EB81000079012828D109F00040B0F107
:1038E000004F23D109F4803094F8D41401F0010181
:1038F00088421BD1012105EBC50204F5157000EBD0
:103900008200C170DBF8180040F08000CBF818008E
:10391000DBF8140000F0800040B940F60400805944
:1039200040F4007140F60400815103E06D1C2079E1
:10393000A842C3D800BF2068406900F40010216885
:103940004861206809F099FA00F08040B0F1804F9A
:1039500008D12046FFF71BFB2068406900F080403B
:1039600021684861206809F088FA00F00400042802
:103970000FD12068D0F8049009F00400042802D187
:103980002046FFF72BFB2068406840EA09002168C9
:10399000486000BFA9E470B504460D462946D4F836
:1039A000E00407F071FF70BD70B504460D4629466E
:1039B000D4F8E00407F08CFF70BDF8B504460CB9EC
:1039C0000120F8BD266894F8950428B9002084F8F1
:1039D0009404204600F0A0F8032084F89504B6F182
:1039E000A04F01D10021A171206808F077FE207C52
:1039F0008DF8000094E80F0008F042FC20B102208E
:103A000084F895040120DCE70021206809F06AFAB7
:103A100020B1022084F895040120D2E7002531E08E
:103A2000012105EBC50204F1140000EB8200417096
:103A300005EBC50104F1140000F8215005EBC501A8
:103A400000EB81004583002105EBC50204F1140061
:103A500000EB8200017105EBC50204F1140000EBDC
:103A60008200816005EBC50204F1140000EB8200C6
:103A7000C16005EBC50204F1140000EB8200016196
:103A8000681CC5B22079A842CADC00252AE00021C2
:103A900005EBC50204F5157000EB8200417005EBE3
:103AA000C50104F5157000F82150002105EBC50291
:103AB00000EB8200017105EBC50204F5157000EB07
:103AC0008200816005EBC50204F5157000EB8200F1
:103AD000C16005EBC50204F5157000EB82000161C1
:103AE000681CC5B22079A842D1DC207C8DF800008A
:103AF00094E80F0008F0FEFC20B1022084F8950441
:103B000001205EE700206074012084F8950420689D
:103B100008F0DEFC002054E710B586B004461421FE
:103B200001A8FCF797FB2068B0F1A04F42D100BF7D
:103B3000002000902048006840F001001E49086005
:103B40000846006800F00100009000BF00BF4FF47D
:103B5000C0500190022002900020039003200490A6
:103B60000A20059001A91548FEF734FD00BF124850
:103B7000001D006840F080000F49091D086000BF6B
:103B8000002000900C481430006840F480400A493E
:103B9000143108600846006800F48040009000BFBF
:103BA00000BF00BF002201214320FFF771F943202D
:103BB000FFF75AF906B010BD30380240000002404D
:103BC00070B504460125E07908B9002506E0E079E2
:103BD000022801D1012501E0FDF780FD2946D4F836
:103BE000E00407F01EFFD4F8E00407F0C5FE70BD46
:103BF00010B50446D4F8E00407F0F4FE10BD10B58B
:103C00000446D4F8E00407F0F8FE10BD70B5044691
:103C10000D4600BF94F89404012801D1022070BD24
:103C2000012084F8940400BF65742946206809F0D7
:103C30008DF900BF002084F8940400BF00BFEEE7B8
:103C400010B5044604F29C41D4F8E00407F000FFEC
:103C500010BD70B50446256800BF94F8940401288F
:103C600001D1022070BD012084F8940400BFE868EF
:103C700000F0400030B1607B012803D1A86B40F414
:103C80008030A863206809F04DF8206808F00EFC29
:103C900000BF002084F8940400BF00BFE2E70000EA
:103CA00010B50446D4F8E00407F02FFF2068D0F8E0
:103CB000000E40F001002168C1F8000EE07A28B142
:103CC0000348006840F006000149086010BD00008C
:103CD00010ED00E070B504460D460CB9012070BD32
:103CE0005848006800F00700A84209D255490D70F5
:103CF0000846006800F00700A84201D00120EEE766
:103D0000207800F0020002281DD1207800F0040085
:103D1000042805D14C48006840F4E0504A49086046
:103D2000207800F00800082805D14748006840F4D2
:103D30006040454908604448006820F0F000A168F0
:103D4000084341490860207800F00100A8B360688A
:103D5000012807D13C4808380068C0F34040B8B992
:103D60000120BCE76068022802D06068032807D100
:103D7000354808380068C0F3406048B90120AEE714
:103D8000314808380068C0F3400008B90120A6E7B0
:103D90002D48006820F00300616808432A49086044
:103DA000FEF718FD064609E0FEF714FD801B41F200
:103DB0008831884202D9032091E707E02248006851
:103DC00000F00C006168B0EB810FEDD11D48006878
:103DD00000F00700A84209D91A490D70084600688A
:103DE00000F00700A84201D0012078E7207800F019
:103DF0000400042807D11448006820F4E050E1686A
:103E0000084311490860207800F00800082808D10C
:103E10000D48006820F46040216940EAC1000A4969
:103E2000086000F03FF808490968C1F30311074A28
:103E3000515CC8400649086006480068FEF7CAFFA2
:103E400000204CE7003C024008380240B0F2000875
:103E500010000020080000200148006870470000A2
:103E60001000002000B5FFF7F7FF04490968C1F30F
:103E70008221034A515CC84000BD0000083802405E
:103E8000C0F2000800B5FFF7E7FF04490968C1F375
:103E90004231034A515CC84000BD0000083802406E
:103EA000C0F200082DE9F047002400250026A146B5
:103EB0002548006800F00C0020B1042805D008282F
:103EC0003AD105E0DFF8849039E0DFF8849036E0FD
:103ED0001D48001F006800F03F041B48001F0068D9
:103EE00000F4800078B11A481749091F0968C1F326
:103EF0008811A0FB01700146224600233846FCF7DA
:103F00005FF905460EE011480F49091F0968C1F322
:103F10008811A0FB01700146224600233846FCF7B9
:103F20004FF905460848001F0068C0F30140401CD7
:103F30004600B5FBF6F902E0DFF8109000BF00BFC5
:103F40004846BDE8F0870000083802400024F4002D
:103F5000001BB700F8B504460CB90120F8BD207865
:103F600000F00100002874D0F948006800F00C004F
:103F700004280DD0F648006800F00C00082813D182
:103F8000F348001F006800F48000B0F5800F0BD1EB
:103F9000EF4808380068C0F34040002859D06068F6
:103FA000002856D10120D9E700BF6068B0F5803FF6
:103FB00008D1E7480838006840F48030E4490839FF
:103FC00008601EE06068B0F5A02F0DD1E048083809
:103FD000006840F48020DE4908390860084600681F
:103FE00040F4803008600CE0D9480838006820F4BC
:103FF0008030D749083908600846006820F48020DE
:10400000086000BF606890B1FEF7E4FB054606E07B
:10401000FEF7E0FB401B642801D903209EE7CC4853
:1040200008380068C0F340400028F1D011E0FEF7E6
:10403000D1FB054606E0FEF7CDFB401B642801D905
:1040400003208BE7C24808380068C0F340400028CE
:10405000F1D1207800F0020002285FD1BC4800684E
:1040600000F00C0058B1BA48006800F00C000828B5
:104070001CD1B748001F006800F48000B0B9B448F4
:1040800008380068C0F3400020B1E068012801D082
:10409000012063E7AE480838006820F0F800216985
:1040A00040EAC100AA490839086037E0E06800B377
:1040B0000120A8490860FEF78DFB054606E0FEF7E3
:1040C00089FB401B022801D9032047E7A048083894
:1040D0000068C0F340000028F1D09D48083800680F
:1040E00020F0F800216940EAC100994908390860C8
:1040F00014E0002097490860FEF76CFB054606E0D7
:10410000FEF768FB401B022801D9032026E79048F0
:1041100008380068C0F340000028F1D1207800F092
:10412000080008282CD16069A8B101208A490860DC
:10413000FEF750FB054606E0FEF74CFB401B02284D
:1041400001D903200AE782486C300068C0F34000C0
:104150000028F1D014E000207F490860FEF73AFB08
:10416000054606E0FEF736FB401B022801D9032076
:10417000F4E677486C300068C0F340000028F1D1C5
:10418000207800F00400042870D1002770483830EF
:10419000006800F0805090B900BF002000906C488B
:1041A0003830006840F0805069493831086008466E
:1041B000006800F08050009000BF00BF01276748F2
:1041C000006800F48070B0B96448006840F4807002
:1041D00062490860FEF7FEFA054606E0FEF7FAFAC5
:1041E000401B022801D90320B8E65C48006800F4AF
:1041F00080700028F2D000BFA068012808D1544880
:104200006830006840F001005149683108601DE0E5
:10421000A06805280DD14E486830006840F00400C1
:104220004B49683108600846006840F001000860AA
:104230000CE047486830006820F0010044496831CC
:1042400008600846006820F00400086000BFA0680D
:10425000A8B1FEF7BFFA054609E0FEF7BBFA401B1E
:1042600041F28831884202D9032077E626E03848B7
:1042700068300068C0F340000028EED013E0FEF77D
:10428000A9FA054608E0FEF7A5FA401B41F288317D
:10429000884201D9032061E62D4868300068C0F3E8
:1042A00040000028EFD1012F07D12948383000689D
:1042B00020F0805026493831086000BFA0690028EE
:1042C00045D02348006800F00C0008285DD0A069A4
:1042D000022845D100201F490866FEF77BFA0546F3
:1042E00006E0FEF777FA401B022801D9032035E6E5
:1042F000174808380068C0F340600028F1D1D4E9BD
:1043000007010843616A40EA81110122A06AC2EBF9
:10431000500041EA00412C20005D41EA00600C4958
:10432000091F086001200B490866FEF753FA05468D
:1043300006E0FEF74FFA401B022801D903200DE6E4
:10434000034808380068C0F340600028F1D049E015
:104350000838024000004742800E4742007000408B
:10436000002021490866FEF735FA054606E0FEF70B
:1043700031FA401B022801D90320EFE51B480068F1
:10438000C0F340600028F2D12CE0A069012800D1E0
:10439000E4E51648001D0668A069012820D006F44F
:1043A0008001E06981421BD106F03F01206A814211
:1043B00016D147F6C0703040616AB0EB811F0FD153
:1043C00006F440310122A06AC2EB5000B1EB004F6D
:1043D00006D106F070612C20005DB1EB006F01D0BA
:1043E0000120BBE50020B9E500004742003802404B
:1043F00010B504460CB9012010BD606A38B9606878
:10440000B0F5827F00D105E00021E16102E00021EA
:10441000216161610021A16294F8510028B9002056
:1044200084F85000204600F047F8022084F851003C
:104430002068006820F0400021680860A08800F42F
:104440008270218901F404410843A18901F40061CB
:104450000843217C01F002010843217D01F00101A4
:104460000843218B01F400710843217F01F03801DA
:1044700008432021095D01F080010843218D01F4EA
:1044800000510843216808600421A06901EA104036
:1044900094F8241001F01001084321684860206856
:1044A000C06920F400602168C861002060650120B7
:1044B00084F8510000209FE710B586B0044614210F
:1044C00001A8FBF7C7FE4B49206888427ED100BF98
:1044D000002000904848006840F480504649086039
:1044E0000846006800F48050009000BF00BF00BF85
:1044F0000020009040481438006840F002003E4917
:10450000143908600846006800F00200009000BFFF
:1045100000BF00BF002000900846006840F0010086
:1045200008600846006800F00100009000BF00BF6E
:104530001820019002200290002003900320049094
:104540000520059001A92D48FEF744F88020019030
:104550000220029000200390032004900520059083
:1045600001A92748FEF736F82648274908604FF08A
:10457000C0604860002124488160C1604FF48061C0
:104580000161002141618161C1614FF440310162EB
:1045900000214162FDF73AFF08B1FDF79FF800BF27
:1045A0001948E064846300BF164818301749086052
:1045B0004FF0C06048604021144881600021C16014
:1045C0004FF4806101610021416100E010E08161F0
:1045D000C1614FF40031016200214162FDF716FF15
:1045E00008B1FDF77BF800BF0848A064846300BFF2
:1045F00006B010BD003001404438024000040240C3
:10460000000002404064024060040020C00400201A
:104610002DE9FF5F0446884691461D460E9E012007
:1046200002900020019000BF94F85000012803D1AF
:10463000022004B0BDE8F09F012084F8500000BFC4
:10464000FEF7C8F8074694F851B060680390AA4690
:10465000BBF1010F0BD00398B0F5827F04D1A068A5
:1046600010B9BBF1040F02D002200190E9E0B8F1CB
:10467000000F03D0B9F1000F00D015B9012001904F
:10468000DFE094F85100042802D0052084F851009E
:1046900000206065C4F83890E587A587C4F83080AD
:1046A000E586A586206460642068006800F040000C
:1046B000402805D02068006840F04000216808606C
:1046C000E068B0F5006F4DD1606810B1BAF1010F2C
:1046D00009D1206B00882168C860206B801C206392
:1046E000E08E401EE08636E02068806800F0020020
:1046F000022810D1E08E70B1029801280BD1206BF6
:1047000000882168C860206B801C2063E08E401EFA
:10471000E086002002902068806800F0010068B107
:10472000E08F58B12068C068A16B0880A06B801C26
:10473000A063E08F401EE08701200290FEF74AF858
:10474000C01BB04207D3701C28B103200190012088
:1047500084F8510075E0E08E0028C5D1E08F002874
:10476000C2D14DE0606810B1BAF1010F09D1206BE0
:10477000007821680873206B401C2063E08E401E87
:10478000E08637E02068806800F00200022810D13F
:10479000E08E70B1029801280BD1206B007821685F
:1047A0000873206B401C2063E08E401EE0860020D2
:1047B00002902068806800F0010068B1E08F58B175
:1047C0002068C068A16B0870A06B401CA063E08FDC
:1047D000401EE08701200290FDF7FCFFC01BB042A5
:1047E00001D3701C00B92EB903200190012084F878
:1047F000510026E0E08E0028C4D1E08F0028C1D10E
:104800003A463146204605F03FFB20B10120019099
:104810002020606515E0A06850B900BF002000901E
:104820002068C068009020688068009000BF00BFCA
:10483000606D10B10120019002E0012084F8510068
:1048400000BF00BF002084F8500000BF0198F0E6D0
:1048500070B504462546681EB0F1807F01D3012063
:104860000FE0681E4FF0E02148610F214FF0FF304C
:1048700008F05CFC00204FF0E0218861072008610F
:10488000002070BD7047704730B502460B4600BF30
:1048900092F83C00012801D1022030BD012082F8AD
:1048A0003C0000BF022082F83D0010684468106898
:1048B000816824F070041868044310684460184D3F
:1048C0001068A8421BD01068B0F1804F17D0154D6A
:1048D0001068A84213D0144D1068A8420FD0134D91
:1048E0001068A8420BD0124D1068A84207D0114D95
:1048F0001068A84203D0104D1068A84205D121F0DD
:1049000080015868014310688160012082F83D00F1
:1049100000BF002082F83C0000BF00BFBDE70000E0
:10492000000001400004004000080040000C00406E
:1049300000040140004001400018004010B504464A
:104940000CB9012010BD94F83D0028B9002084F86E
:104950003C00204600F026F8022084F83D00211D8E
:10496000206805F0F5FB012084F8460000BF84F8BC
:104970003E0001213F2001554020015541200155B5
:1049800000BF00BF012084F84200432001554420AD
:1049900001554520015500BF012084F83D0000204D
:1049A000D0E7000038B504462068B0F1804F18D138
:1049B00000BF002000902548006840F00100234916
:1049C00008600846006800F00100009000BF00BFCA
:1049D000002201211C20FEF75BFA1C20FEF744FA9E
:1049E00032E01B492068884218D100BF00200090A7
:1049F0001648006840F00200144908600846006844
:104A000000F00200009000BF00BF002201211D2025
:104A1000FEF73EFA1D20FEF727FA15E00D49206843
:104A2000884211D100BF002000900848001D006896
:104A300040F400300549091D08600846006800F48C
:104A40000030009000BF00BF38BD00004038024079
:104A50000004004000440140014691F83D00012857
:104A600001D001207047022081F83D001A4B0868F0
:104A700098421BD00868B0F1804F17D0174B0868D8
:104A8000984213D0164B086898420FD0154B08680F
:104A900098420BD0144B0868984207D0134B086813
:104AA000984203D0124B086898420CD1086880687D
:104AB00000F00702062A0CD00868006840F00100E8
:104AC0000B68186005E00868006840F001000B689A
:104AD00018600020C6E7000000000140000400400C
:104AE00000080040000C004000040140004001406C
:104AF00000180040014691F83D00012801D0012036
:104B00007047022081F83D000868C06840F001004D
:104B10000B68D8601A4B086898421BD00868B0F13F
:104B2000804F17D0174B0868984213D0164B08686F
:104B300098420FD0154B086898420BD0144B086868
:104B4000984207D0134B0868984203D0124B08686C
:104B500098420CD10868806800F00702062A0CD041
:104B60000868006840F001000B68186005E00868FC
:104B7000006840F001000B6818600020C0E70000EA
:104B8000000001400004004000080040000C00400C
:104B90000004014000400140001800402DE9F041B0
:104BA00004460D46002700BF94F83C00012802D1BE
:104BB0000220BDE8F081012084F83C0000BF022003
:104BC00084F83D002068866826F0770626F47F4644
:104BD000206886602868502833D00CDC202850D00C
:104BE00004DC00284BD0102851D149E0302849D0AE
:104BF00040284CD139E060282DD0702807D0B0F57E
:104C0000805F03D0B0F5005F41D10DE041E0D5E910
:104C100002136A68206805F020FB2068866846F069
:104C200077062068866034E0D5E902136A68206858
:104C300005F013FB2068806840F48040216888609C
:104C400027E0EA686968206805F0F8FB50212068D1
:104C500005F00EFB1DE0EA686968206805F001FCBC
:104C60006021206805F004FB13E0EA6869682068A9
:104C700005F0E4FB4021206805F0FAFA09E000BFE6
:104C800000BF00BF2968206805F0F2FA01E00127A3
:104C900000BF00BF012084F83D0000BF002084F861
:104CA0003C0000BF384684E7704770B50446206872
:104CB000C5682068066906F00200022819D105F0CF
:104CC0000200022815D1401F2168086101202077C9
:104CD0002068806900F0030018B12046FFF7E4FF68
:104CE00005E0204600F0CAF8204600F07EF90020DA
:104CF000207706F00400042819D105F004000428E8
:104D000015D1C0432168086102202077206880699E
:104D100000F4407018B12046FFF7C6FF05E02046BA
:104D200000F0ACF8204600F060F90020207706F093
:104D30000800082819D105F00800082815D1C0433B
:104D400021680861042020772068C06900F0030012
:104D500018B12046FFF7A8FF05E0204600F08EF8C6
:104D6000204600F042F90020207706F010001028BD
:104D700019D105F01000102815D1C0432168086131
:104D8000082020772068C06900F4407018B12046E0
:104D9000FFF78AFF05E0204600F070F8204600F09B
:104DA00024F90020207706F0010048B105F0010049
:104DB00030B16FF0010021680861204600F09CF9D5
:104DC00006F08000802809D105F08000802805D1F8
:104DD000C043216808612046FFF754FD06F04000FB
:104DE000402809D105F04000402805D1C043216882
:104DF0000861204600F07CFA06F02000202809D146
:104E000005F02000202805D1C04321680861204614
:104E1000FFF739FD70BD000010B586B004461421BF
:104E200001A8FBF717FA1249206888421DD100BF7C
:104E3000002000900F48006840F020000D490860F5
:104E40000846006800F02000009000BF00BF40202E
:104E50000190022002900120039002200490032080
:104E6000059001A90448FDF7B5FB06B010BD000090
:104E700000440140303802400014024070472DE9E0
:104E8000F04104460D461646002700BF94F83C004A
:104E9000012802D10220BDE8F081012084F83C0005
:104EA00000BF36B1042E1BD0082E31D00C2E5ED19F
:104EB00045E02946206805F0E5F92068806940F062
:104EC0000800216888612068806920F0040021685A
:104ED000886120688069296908432168886148E001
:104EE0002946206805F006FA2068806940F40060D1
:104EF000216888612068806920F480602168886169
:104F000020688069296940EA01202168886130E0D1
:104F10002946206805F02CFA2068C06940F0080096
:104F20002168C8612068C06920F004002168C86158
:104F30002068C069296908432168C86119E02946C9
:104F4000206805F051FA2068C06940F400602168CB
:104F5000C8612068C06920F480602168C861206849
:104F6000C069296940EA01202168C86101E0012780
:104F700000BF00BF00BF002084F83C0000BF3846DF
:104F800089E710B504460CB9012010BD94F83D0026
:104F900028B9002084F83C00204600F025F80220C3
:104FA00084F83D00211D206805F0D2F8012084F826
:104FB000460000BF84F83E0001213F2001554020FB
:104FC00001554120015500BF00BF012084F8420077
:104FD00043200155442001554520015500BF0120C3
:104FE00084F83D000020D0E77047704770B5044654
:104FF0000D4615B994F83E000BE0042D02D13F2078
:10500000005D06E0082D02D14020005D01E0412056
:10501000005D012801D0012070BD1DB9022084F877
:105020003E000EE0042D03D102213F20015508E08F
:10503000082D03D102214020015502E00221412028
:10504000015501222946206805F0F6F82349206819
:10505000884203D022492068884201D1012000E023
:10506000002028B12068406C40F40040216848646A
:105070001A49206888421BD02068B0F1804F17D0B1
:1050800018492068884213D01749206888420FD0F9
:105090001649206888420BD011492068884207D001
:1050A00013492068884203D01249206888420CD1F5
:1050B0002068806800F00706062E0CD02068006883
:1050C00040F001002168086005E02068006840F0B9
:1050D00001002168086000209EE7000000000140F8
:1050E000000401400004004000080040000C0040A3
:1050F000004001400018004070B504466E488442EC
:105100007DD16E480068401C6C4908606C4800689E
:10511000032803DD01206B49086005E000231A46DF
:1051200019461846FBF750FD00F086FC66480078EB
:10513000012831D161480068052190FBF1F201FBA3
:10514000120098B9614890ED000ADFED610A20EE87
:10515000200ABDEEC00A10EE100A01B25D48FBF74E
:105160009DFC5C4AD17A907AFBF776FC5348006844
:10517000072190FBF1F201FB120002287CD1554877
:1051800009F0FCFE5349B1F90800FBF7FBFC09F0FC
:1051900095FE05F091FA6FE048480068072190FB02
:1051A000F1F201FB120008B909F02AFC4548006839
:1051B000012861D1454D95ED000ADFED450A20EE4D
:1051C000200ABDEEC00A10EE105A2BB2424D95EDEA
:1051D000000ABDEEC00A10EE105A2AB23E4D95EDFF
:1051E000050ABDEEC00A10EE105A29B23A4D95EDEF
:1051F000040ABDEEC00A10EE105A28B200E05AE0D0
:10520000FBF7E2FC354A92ED020ABDEEC00A10EE51
:10521000102A11B2314A92ED010ABDEEC00A10EE19
:10522000102A10B2FBF718FC24480068072190FBF5
:10523000F1F201FB120002281ED109F0D9F809F0A1
:1052400059FF274BB3F90C20B3F90410254B93ED0C
:10525000550ABDEEC00A10EE103A18B2FBF766FC14
:10526000214890ED000ABDEEC00A10EE100A00B20F
:10527000FBF788FC05F020FA10480068142190FB29
:10528000F1F201FB120008B908F064FD0B48006858
:10529000B0F57A7F0FDB00200849086013480068EA
:1052A000401C124908600748006820B9044800689B
:1052B000401C0349086070BD200500203402002016
:1052C0002C020020300200207801002080080020FD
:1052D0000000C84204160020E815002088160020AF
:1052E000880D0020C00E00202C0100203802002074
:1052F000704710B504460CB9012010BDA06900B17B
:1053000000E000BF94F8410028B9002084F8400074
:10531000204600F029F8242084F841002068C06865
:1053200020F400502168C860204605F0AFF82068DE
:10533000006920F49040216808612068406920F0ED
:105340002A00216848612068C06840F40050216844
:10535000C86000206064202084F8410084F8420086
:105360000020606300BFC8E710B586B00446142172
:1053700001A8FAF76FFF5A49206888424FD100BF51
:10538000002000905748006840F4003055490860FC
:105390000846006800F40030009000BF00BF00BF66
:1053A000002000904F481038006840F008004D4938
:1053B000103908600846006800F00800009000BF3F
:1053C00000BF602001900220029000200390032083
:1053D00004900720059001A94348FDF7FBF84348D6
:1053E000434908604FF000604860002140488160F8
:1053F000C1604FF480610161002141618161C1613F
:105400004FF48031016200214162FCF7FFFF08B1D7
:10541000FCF764F900BF3648E06384635DE035491A
:105420002068884259D100BF002000902D480068B4
:1054300040F480202B4908600846006800F4802072
:10544000009000BF00BF00BF00200090254810382A
:10545000006840F0040023491039086008460068DD
:1054600000F00400009000BF00BF4FF440600190C6
:105470000220029000200390032004900720059052
:1054800001A91D48FDF7A6F8184860381B490860B7
:105490004FF000604860002118488160C1604FF4FF
:1054A00080610161002141618161C1614FF48031FE
:1054B000016200214162FCF7A9FF08B1FCF70EF977
:1054C00000BF0E48E063846300BF00220121272053
:1054D000FDF7DEFC2720FDF7C7FC06B010BD00007D
:1054E0000044004040380240000C02408860024006
:1054F000880600200048004000080240E80600201E
:1055000000BFFEE7014608684069C0F38020B0B1E3
:105510006FF480600A68506100200863202081F8E1
:105520003D00002081F83E00086C40F00400086453
:1055300000BF002081F83C0000BF01207047002020
:10554000FCE700002DE9F84304460F46154699464E
:10555000DDE908862068006840F480602168086002
:105560002068006840F4807021680860434600228B
:105570004FF001112046009600F094F860B12068C9
:10558000006800F48070B0F5807F02D14FF40070A5
:1055900020640320BDE8F88307F0FE00216808615D
:1055A000334642463E49204600F0DBF808B1012070
:1055B000F0E700BF0020009020684069009020685C
:1055C0008069009000BF00BF32464146204600F08F
:1055D0008AF950B1206C042805D12068006840F495
:1055E0000070216808600120D4E7B9F1010F03D1F0
:1055F000E8B22168086117E0C5F307202168086157
:1056000032464146204600F06EF950B1206C042825
:1056100005D12068006840F400702168086001200E
:10562000B8E7E8B22168086132464146204600F0FA
:105630005AF950B1206C042805D12068006840F464
:105640000070216808600120A4E72068006840F429
:10565000807021680860434600224FF00111204607
:10566000009600F01FF858B12068006800F48070C0
:10567000B0F5807F02D14FF400702064032089E7E9
:10568000F8B240F0010021680861334642460449FF
:10569000204600F066F808B101207BE7002079E79A
:1056A000020001002DE9F04104460D4617461E4652
:1056B000DDF8188038E0701CA8B3FDF78BF8A0EB7C
:1056C0000800B04200D876BBC5F3074001280AD1D4
:1056D00020684069A9B20840A9B2884201D10120DE
:1056E0000BE0002009E020688069A9B20840A9B257
:1056F000884201D1012000E00020B84214D10020EE
:105700002063202084F83D00002084F83E00206CB7
:1057100040F02000206400BF002084F83C0000BF5F
:105720000120BDE8F081FFE7C5F3074001280AD159
:1057300020684069A9B20840A9B2884201D101207D
:105740000BE0002009E020688069A9B20840A9B2F6
:10575000884201D1012000E00020B842ABD00020F7
:10576000DFE72DE9F04104460D4616461F4658E096
:1057700020684069C0F38020E8B12068006840F4E8
:105780000070216808606FF4806021684861002023
:105790002063202084F83D00002084F83E00206C27
:1057A00040F00400206400BF002084F83C0000BFEB
:1057B0000120BDE8F081701C90B3FDF70BF8C01B11
:1057C000B04200D866BBC5F3074001280AD1206863
:1057D0004069A9B20840A9B2884201D101200BE07A
:1057E000002009E020688069A9B20840A9B2884277
:1057F00001D1012000E0002090B90020206320208A
:1058000084F83D00002084F83E00206C40F0200029
:10581000206400BF002084F83C0000BF0120C8E7DE
:10582000FFE7C5F3074001280AD120684069A9B203
:105830000840A9B2884201D101200BE0002009E014
:1058400020688069A9B20840A9B2884201D101202C
:1058500000E0002000288BD00020AAE770B50446A5
:105860000D46164637E020684069C0F30010A0B12D
:105870006FF010002168486100202063202084F828
:105880003D00002084F83E00206C206400BF002012
:1058900084F83C0000BF012070BDFCF79BFF801B1B
:1058A000A84200D8BDB920684069C0F3801090B903
:1058B00000202063202084F83D00002084F83E0072
:1058C000206C40F02000206400BF002084F83C00E1
:1058D00000BF0120E0E720684069C0F38010002885
:1058E000C1D00020D8E770B504460D46164625E025
:1058F0002046FFF707FE08B1012070BD681CE8B123
:10590000FCF768FF801BA84200D8BDB92068406939
:10591000C0F3C01090B900202063202084F83D001F
:10592000002084F83E00206C40F02000206400BF7E
:10593000002084F83C0000BF0120DEE720684069B9
:10594000C0F3C0100028D3D00020D6E708B502E08D
:10595000642008F03DFAFAF739FF0028F8D1274A09
:10596000A2F10C01101DFAF74BFF2549254801F063
:1059700017FB254A21490C392448FAF717FE102154
:105980002348C161FEF734FD08B1FBF7A7FE0822EA
:105990002049214804F0B8F90120204908701A482C
:1059A000001F164B103B1E4A1E4900901E4808F06F
:1059B00007FE1C4890ED000A1C4880ED000A1C48B8
:1059C00080ED000A1B4880ED000A164890ED010AA0
:1059D000164880ED010A164880ED010A154880ED51
:1059E000010A104890ED020A104880ED020A1048A2
:1059F00080ED020A0F4880ED020A08BD640700200E
:105A0000C8F20008D00700207C07002064080020AE
:105A100008040020140000201C0000203900002091
:105A2000580800204C0800204008002034080020BE
:105A3000280800201C08002000B52DED048B81B043
:105A4000BA480068401CB94908600846006819282F
:105A500009DDB748D0ED040AB0EE600A08F000FF97
:105A60000020B2490860B348007800F0080050B147
:105A7000B048007820F00800AE490870AC491431F5
:105A8000AD48FAF76FFEAD48007800F0040060B151
:105A9000AA48007820F00400A8490870A44A2032DF
:105AA000A2F11C01A648FAF707FEA648007800F00C
:105AB000040088B1A348007820F00400A1490870D0
:105AC0009B491031A048FAF789FF9948D0ED040AA4
:105AD000B0EE600A08F0C4FE9C48954B9C4A9D4974
